{
  "_format": "hh-sol-artifact-1",
  "contractName": "LoyaltyToken",
  "sourceName": "contracts/LoyaltyPoint.sol",
  "abi": [
    {
      "inputs": [
        {
          "internalType": "address",
          "name": "_rewardManager",
          "type": "address"
        },
        {
          "internalType": "address",
          "name": "_redemptionRouter",
          "type": "address"
        },
        {
          "internalType": "address",
          "name": "_swapRouter",
          "type": "address"
        },
        {
          "internalType": "address",
          "name": "_idrxToken",
          "type": "address"
        }
      ],
      "stateMutability": "nonpayable",
      "type": "constructor"
    },
    {
      "anonymous": false,
      "inputs": [
        {
          "indexed": true,
          "internalType": "address",
          "name": "owner",
          "type": "address"
        },
        {
          "indexed": true,
          "internalType": "address",
          "name": "spender",
          "type": "address"
        },
        {
          "indexed": false,
          "internalType": "uint256",
          "name": "value",
          "type": "uint256"
        }
      ],
      "name": "Approval",
      "type": "event"
    },
    {
      "anonymous": false,
      "inputs": [
        {
          "indexed": true,
          "internalType": "address",
          "name": "from",
          "type": "address"
        },
        {
          "indexed": true,
          "internalType": "address",
          "name": "to",
          "type": "address"
        },
        {
          "indexed": false,
          "internalType": "uint256",
          "name": "value",
          "type": "uint256"
        }
      ],
      "name": "Transfer",
      "type": "event"
    },
    {
      "inputs": [
        {
          "internalType": "address",
          "name": "",
          "type": "address"
        },
        {
          "internalType": "address",
          "name": "",
          "type": "address"
        }
      ],
      "name": "allowance",
      "outputs": [
        {
          "internalType": "uint256",
          "name": "",
          "type": "uint256"
        }
      ],
      "stateMutability": "view",
      "type": "function"
    },
    {
      "inputs": [
        {
          "internalType": "address",
          "name": "spender",
          "type": "address"
        },
        {
          "internalType": "uint256",
          "name": "amount",
          "type": "uint256"
        }
      ],
      "name": "approve",
      "outputs": [
        {
          "internalType": "bool",
          "name": "",
          "type": "bool"
        }
      ],
      "stateMutability": "nonpayable",
      "type": "function"
    },
    {
      "inputs": [
        {
          "internalType": "address",
          "name": "",
          "type": "address"
        }
      ],
      "name": "balanceOf",
      "outputs": [
        {
          "internalType": "uint256",
          "name": "",
          "type": "uint256"
        }
      ],
      "stateMutability": "view",
      "type": "function"
    },
    {
      "inputs": [
        {
          "internalType": "address",
          "name": "from",
          "type": "address"
        },
        {
          "internalType": "uint256",
          "name": "amount",
          "type": "uint256"
        }
      ],
      "name": "burn",
      "outputs": [],
      "stateMutability": "nonpayable",
      "type": "function"
    },
    {
      "inputs": [],
      "name": "decimals",
      "outputs": [
        {
          "internalType": "uint8",
          "name": "",
          "type": "uint8"
        }
      ],
      "stateMutability": "view",
      "type": "function"
    },
    {
      "inputs": [],
      "name": "getBackingRatio",
      "outputs": [
        {
          "internalType": "uint256",
          "name": "",
          "type": "uint256"
        }
      ],
      "stateMutability": "view",
      "type": "function"
    },
    {
      "inputs": [],
      "name": "idrxToken",
      "outputs": [
        {
          "internalType": "contract IERC20",
          "name": "",
          "type": "address"
        }
      ],
      "stateMutability": "view",
      "type": "function"
    },
    {
      "inputs": [
        {
          "internalType": "address",
          "name": "to",
          "type": "address"
        },
        {
          "internalType": "uint256",
          "name": "amount",
          "type": "uint256"
        }
      ],
      "name": "mint",
      "outputs": [],
      "stateMutability": "nonpayable",
      "type": "function"
    },
    {
      "inputs": [],
      "name": "name",
      "outputs": [
        {
          "internalType": "string",
          "name": "",
          "type": "string"
        }
      ],
      "stateMutability": "view",
      "type": "function"
    },
    {
      "inputs": [],
      "name": "owner",
      "outputs": [
        {
          "internalType": "address",
          "name": "",
          "type": "address"
        }
      ],
      "stateMutability": "view",
      "type": "function"
    },
    {
      "inputs": [
        {
          "internalType": "address",
          "name": "from",
          "type": "address"
        },
        {
          "internalType": "address",
          "name": "to",
          "type": "address"
        },
        {
          "internalType": "uint256",
          "name": "amount",
          "type": "uint256"
        }
      ],
      "name": "redeemTransfer",
      "outputs": [
        {
          "internalType": "bool",
          "name": "",
          "type": "bool"
        }
      ],
      "stateMutability": "nonpayable",
      "type": "function"
    },
    {
      "inputs": [],
      "name": "redemptionRouter",
      "outputs": [
        {
          "internalType": "address",
          "name": "",
          "type": "address"
        }
      ],
      "stateMutability": "view",
      "type": "function"
    },
    {
      "inputs": [],
      "name": "rewardManager",
      "outputs": [
        {
          "internalType": "address",
          "name": "",
          "type": "address"
        }
      ],
      "stateMutability": "view",
      "type": "function"
    },
    {
      "inputs": [
        {
          "internalType": "address",
          "name": "_swapRouter",
          "type": "address"
        }
      ],
      "name": "setSwapRouter",
      "outputs": [],
      "stateMutability": "nonpayable",
      "type": "function"
    },
    {
      "inputs": [],
      "name": "swapRouter",
      "outputs": [
        {
          "internalType": "address",
          "name": "",
          "type": "address"
        }
      ],
      "stateMutability": "view",
      "type": "function"
    },
    {
      "inputs": [
        {
          "internalType": "address",
          "name": "from",
          "type": "address"
        },
        {
          "internalType": "address",
          "name": "to",
          "type": "address"
        },
        {
          "internalType": "uint256",
          "name": "amount",
          "type": "uint256"
        }
      ],
      "name": "swapTransfer",
      "outputs": [
        {
          "internalType": "bool",
          "name": "",
          "type": "bool"
        }
      ],
      "stateMutability": "nonpayable",
      "type": "function"
    },
    {
      "inputs": [],
      "name": "symbol",
      "outputs": [
        {
          "internalType": "string",
          "name": "",
          "type": "string"
        }
      ],
      "stateMutability": "view",
      "type": "function"
    },
    {
      "inputs": [],
      "name": "totalIDRXBacking",
      "outputs": [
        {
          "internalType": "uint256",
          "name": "",
          "type": "uint256"
        }
      ],
      "stateMutability": "view",
      "type": "function"
    },
    {
      "inputs": [],
      "name": "totalSupply",
      "outputs": [
        {
          "internalType": "uint256",
          "name": "",
          "type": "uint256"
        }
      ],
      "stateMutability": "view",
      "type": "function"
    },
    {
      "inputs": [
        {
          "internalType": "address",
          "name": "to",
          "type": "address"
        },
        {
          "internalType": "uint256",
          "name": "amount",
          "type": "uint256"
        }
      ],
      "name": "transfer",
      "outputs": [
        {
          "internalType": "bool",
          "name": "",
          "type": "bool"
        }
      ],
      "stateMutability": "nonpayable",
      "type": "function"
    },
    {
      "inputs": [
        {
          "internalType": "address",
          "name": "from",
          "type": "address"
        },
        {
          "internalType": "address",
          "name": "to",
          "type": "address"
        },
        {
          "internalType": "uint256",
          "name": "amount",
          "type": "uint256"
        }
      ],
      "name": "transferFrom",
      "outputs": [
        {
          "internalType": "bool",
          "name": "",
          "type": "bool"
        }
      ],
      "stateMutability": "nonpayable",
      "type": "function"
    },
    {
      "inputs": [
        {
          "internalType": "address",
          "name": "to",
          "type": "address"
        },
        {
          "internalType": "uint256",
          "name": "amount",
          "type": "uint256"
        }
      ],
      "name": "transferIDRX",
      "outputs": [
        {
          "internalType": "bool",
          "name": "",
          "type": "bool"
        }
      ],
      "stateMutability": "nonpayable",
      "type": "function"
    }
  ],
  "bytecode": "0x60a06040526040518060400160405280601681526020017f506f696e74696679204c6f79616c747920546f6b656e00000000000000000000815250600090816200004a91906200049d565b506040518060400160405280600381526020017f504c540000000000000000000000000000000000000000000000000000000000815250600190816200009191906200049d565b506012600260006101000a81548160ff021916908360ff160217905550348015620000bb57600080fd5b50604051620027a1380380620027a18339818101604052810190620000e19190620005ee565b83600660006101000a81548173ffffffffffffffffffffffffffffffffffffffff021916908373ffffffffffffffffffffffffffffffffffffffff16021790555082600760006101000a81548173ffffffffffffffffffffffffffffffffffffffff021916908373ffffffffffffffffffffffffffffffffffffffff16021790555081600860006101000a81548173ffffffffffffffffffffffffffffffffffffffff021916908373ffffffffffffffffffffffffffffffffffffffff1602179055508073ffffffffffffffffffffffffffffffffffffffff1660808173ffffffffffffffffffffffffffffffffffffffff168152505033600560006101000a81548173ffffffffffffffffffffffffffffffffffffffff021916908373ffffffffffffffffffffffffffffffffffffffff1602179055505050505062000660565b600081519050919050565b7f4e487b7100000000000000000000000000000000000000000000000000000000600052604160045260246000fd5b7f4e487b7100000000000000000000000000000000000000000000000000000000600052602260045260246000fd5b60006002820490506001821680620002a557607f821691505b602082108103620002bb57620002ba6200025d565b5b50919050565b60008190508160005260206000209050919050565b60006020601f8301049050919050565b600082821b905092915050565b600060088302620003257fffffffffffffffffffffffffffffffffffffffffffffffffffffffffffffffff82620002e6565b620003318683620002e6565b95508019841693508086168417925050509392505050565b6000819050919050565b6000819050919050565b60006200037e62000378620003728462000349565b62000353565b62000349565b9050919050565b6000819050919050565b6200039a836200035d565b620003b2620003a98262000385565b848454620002f3565b825550505050565b600090565b620003c9620003ba565b620003d68184846200038f565b505050565b5b81811015620003fe57620003f2600082620003bf565b600181019050620003dc565b5050565b601f8211156200044d576200041781620002c1565b6200042284620002d6565b8101602085101562000432578190505b6200044a6200044185620002d6565b830182620003db565b50505b505050565b600082821c905092915050565b6000620004726000198460080262000452565b1980831691505092915050565b60006200048d83836200045f565b9150826002028217905092915050565b620004a88262000223565b67ffffffffffffffff811115620004c457620004c36200022e565b5b620004d082546200028c565b620004dd82828562000402565b600060209050601f83116001811462000515576000841562000500578287015190505b6200050c85826200047f565b8655506200057c565b601f1984166200052586620002c1565b60005b828110156200054f5784890151825560018201915060208501945060208101905062000528565b868310156200056f57848901516200056b601f8916826200045f565b8355505b6001600288020188555050505b505050505050565b600080fd5b600073ffffffffffffffffffffffffffffffffffffffff82169050919050565b6000620005b68262000589565b9050919050565b620005c881620005a9565b8114620005d457600080fd5b50565b600081519050620005e881620005bd565b92915050565b600080600080608085870312156200060b576200060a62000584565b5b60006200061b87828801620005d7565b94505060206200062e87828801620005d7565b93505060406200064187828801620005d7565b92505060606200065487828801620005d7565b91505092959194509250565b6080516121176200068a6000396000818161115c0152818161168301526116ec01526121176000f3fe608060405234801561001057600080fd5b50600436106101425760003560e01c806364cd490a116100b85780639dc29fac1161007c5780639dc29fac1461038f578063a9059cbb146103ab578063c31c9c07146103db578063d6bc7c63146103f9578063dd62ed3e14610417578063ffa320991461044757610142565b806364cd490a146102c357806370a08231146102f3578063878ba361146103235780638da5cb5b1461035357806395d89b411461037157610142565b806323b872dd1161010a57806323b872dd146101ef57806323d416541461021f578063313ce5671461024f57806340c10f191461026d57806341273657146102895780634e8ba3bd146102a557610142565b806306fdde0314610147578063095ea7b3146101655780630c0ff67f146101955780630f4ef8a6146101b357806318160ddd146101d1575b600080fd5b61014f610465565b60405161015c919061182e565b60405180910390f35b61017f600480360381019061017a91906118e9565b6104f7565b60405161018c9190611944565b60405180910390f35b61019d6105e9565b6040516101aa919061196e565b60405180910390f35b6101bb6105ef565b6040516101c89190611998565b60405180910390f35b6101d9610615565b6040516101e6919061196e565b60405180910390f35b610209600480360381019061020491906119b3565b61061b565b6040516102169190611944565b60405180910390f35b610239600480360381019061023491906119b3565b61090d565b6040516102469190611944565b60405180910390f35b610257610b3d565b6040516102649190611a22565b60405180910390f35b610287600480360381019061028291906118e9565b610b54565b005b6102a3600480360381019061029e9190611a3d565b610cd6565b005b6102ad610daa565b6040516102ba9190611998565b60405180910390f35b6102dd60048036038101906102d891906119b3565b610dd0565b6040516102ea9190611944565b60405180910390f35b61030d60048036038101906103089190611a3d565b611000565b60405161031a919061196e565b60405180910390f35b61033d600480360381019061033891906118e9565b611018565b60405161034a9190611944565b60405180910390f35b61035b611200565b6040516103689190611998565b60405180910390f35b610379611226565b604051610386919061182e565b60405180910390f35b6103a960048036038101906103a491906118e9565b6112b8565b005b6103c560048036038101906103c091906118e9565b6114bc565b6040516103d29190611944565b60405180910390f35b6103e361165b565b6040516103f09190611998565b60405180910390f35b610401611681565b60405161040e9190611ac9565b60405180910390f35b610431600480360381019061042c9190611ae4565b6116a5565b60405161043e919061196e565b60405180910390f35b61044f6116ca565b60405161045c919061196e565b60405180910390f35b60606000805461047490611b53565b80601f01602080910402602001604051908101604052809291908181526020018280546104a090611b53565b80156104ed5780601f106104c2576101008083540402835291602001916104ed565b820191906000526020600020905b8154815290600101906020018083116104d057829003601f168201915b5050505050905090565b600081600a60003373ffffffffffffffffffffffffffffffffffffffff1673ffffffffffffffffffffffffffffffffffffffff16815260200190815260200160002060008573ffffffffffffffffffffffffffffffffffffffff1673ffffffffffffffffffffffffffffffffffffffff168152602001908152602001600020819055508273ffffffffffffffffffffffffffffffffffffffff163373ffffffffffffffffffffffffffffffffffffffff167f8c5be1e5ebec7d5bd14f71427d1e84f3dd0314c0f7b2291e5b200ac8c7c3b925846040516105d7919061196e565b60405180910390a36001905092915050565b60045481565b600660009054906101000a900473ffffffffffffffffffffffffffffffffffffffff1681565b60035481565b600081600960008673ffffffffffffffffffffffffffffffffffffffff1673ffffffffffffffffffffffffffffffffffffffff16815260200190815260200160002054101561069f576040517f08c379a000000000000000000000000000000000000000000000000000000000815260040161069690611bd0565b60405180910390fd5b81600a60008673ffffffffffffffffffffffffffffffffffffffff1673ffffffffffffffffffffffffffffffffffffffff16815260200190815260200160002060003373ffffffffffffffffffffffffffffffffffffffff1673ffffffffffffffffffffffffffffffffffffffff16815260200190815260200160002054101561075e576040517f08c379a000000000000000000000000000000000000000000000000000000000815260040161075590611c3c565b60405180910390fd5b81600a60008673ffffffffffffffffffffffffffffffffffffffff1673ffffffffffffffffffffffffffffffffffffffff16815260200190815260200160002060003373ffffffffffffffffffffffffffffffffffffffff1673ffffffffffffffffffffffffffffffffffffffff16815260200190815260200160002060008282546107ea9190611c8b565b9250508190555081600960008673ffffffffffffffffffffffffffffffffffffffff1673ffffffffffffffffffffffffffffffffffffffff16815260200190815260200160002060008282546108409190611c8b565b9250508190555081600960008573ffffffffffffffffffffffffffffffffffffffff1673ffffffffffffffffffffffffffffffffffffffff16815260200190815260200160002060008282546108969190611cbf565b925050819055508273ffffffffffffffffffffffffffffffffffffffff168473ffffffffffffffffffffffffffffffffffffffff167fddf252ad1be2c89b69c2b068fc378daa952ba7f163c4a11628f55a4df523b3ef846040516108fa919061196e565b60405180910390a3600190509392505050565b6000600760009054906101000a900473ffffffffffffffffffffffffffffffffffffffff1673ffffffffffffffffffffffffffffffffffffffff163373ffffffffffffffffffffffffffffffffffffffff161461099f576040517f08c379a000000000000000000000000000000000000000000000000000000000815260040161099690611d3f565b60405180910390fd5b81600960008673ffffffffffffffffffffffffffffffffffffffff1673ffffffffffffffffffffffffffffffffffffffff168152602001908152602001600020541015610a21576040517f08c379a0000000000000000000000000000000000000000000000000000000008152600401610a1890611bd0565b60405180910390fd5b81600960008673ffffffffffffffffffffffffffffffffffffffff1673ffffffffffffffffffffffffffffffffffffffff1681526020019081526020016000206000828254610a709190611c8b565b9250508190555081600960008573ffffffffffffffffffffffffffffffffffffffff1673ffffffffffffffffffffffffffffffffffffffff1681526020019081526020016000206000828254610ac69190611cbf565b925050819055508273ffffffffffffffffffffffffffffffffffffffff168473ffffffffffffffffffffffffffffffffffffffff167fddf252ad1be2c89b69c2b068fc378daa952ba7f163c4a11628f55a4df523b3ef84604051610b2a919061196e565b60405180910390a3600190509392505050565b6000600260009054906101000a900460ff16905090565b600660009054906101000a900473ffffffffffffffffffffffffffffffffffffffff1673ffffffffffffffffffffffffffffffffffffffff163373ffffffffffffffffffffffffffffffffffffffff1614610be4576040517f08c379a0000000000000000000000000000000000000000000000000000000008152600401610bdb90611dab565b60405180910390fd5b8060036000828254610bf69190611cbf565b925050819055508060046000828254610c0f9190611cbf565b9250508190555080600960008473ffffffffffffffffffffffffffffffffffffffff1673ffffffffffffffffffffffffffffffffffffffff1681526020019081526020016000206000828254610c659190611cbf565b925050819055508173ffffffffffffffffffffffffffffffffffffffff16600073ffffffffffffffffffffffffffffffffffffffff167fddf252ad1be2c89b69c2b068fc378daa952ba7f163c4a11628f55a4df523b3ef83604051610cca919061196e565b60405180910390a35050565b600560009054906101000a900473ffffffffffffffffffffffffffffffffffffffff1673ffffffffffffffffffffffffffffffffffffffff163373ffffffffffffffffffffffffffffffffffffffff1614610d66576040517f08c379a0000000000000000000000000000000000000000000000000000000008152600401610d5d90611e17565b60405180910390fd5b80600860006101000a81548173ffffffffffffffffffffffffffffffffffffffff021916908373ffffffffffffffffffffffffffffffffffffffff16021790555050565b600760009054906101000a900473ffffffffffffffffffffffffffffffffffffffff1681565b6000600860009054906101000a900473ffffffffffffffffffffffffffffffffffffffff1673ffffffffffffffffffffffffffffffffffffffff163373ffffffffffffffffffffffffffffffffffffffff1614610e62576040517f08c379a0000000000000000000000000000000000000000000000000000000008152600401610e5990611e83565b60405180910390fd5b81600960008673ffffffffffffffffffffffffffffffffffffffff1673ffffffffffffffffffffffffffffffffffffffff168152602001908152602001600020541015610ee4576040517f08c379a0000000000000000000000000000000000000000000000000000000008152600401610edb90611bd0565b60405180910390fd5b81600960008673ffffffffffffffffffffffffffffffffffffffff1673ffffffffffffffffffffffffffffffffffffffff1681526020019081526020016000206000828254610f339190611c8b565b9250508190555081600960008573ffffffffffffffffffffffffffffffffffffffff1673ffffffffffffffffffffffffffffffffffffffff1681526020019081526020016000206000828254610f899190611cbf565b925050819055508273ffffffffffffffffffffffffffffffffffffffff168473ffffffffffffffffffffffffffffffffffffffff167fddf252ad1be2c89b69c2b068fc378daa952ba7f163c4a11628f55a4df523b3ef84604051610fed919061196e565b60405180910390a3600190509392505050565b60096020528060005260406000206000915090505481565b6000600660009054906101000a900473ffffffffffffffffffffffffffffffffffffffff1673ffffffffffffffffffffffffffffffffffffffff163373ffffffffffffffffffffffffffffffffffffffff1614806110c35750600760009054906101000a900473ffffffffffffffffffffffffffffffffffffffff1673ffffffffffffffffffffffffffffffffffffffff163373ffffffffffffffffffffffffffffffffffffffff16145b8061111b5750600860009054906101000a900473ffffffffffffffffffffffffffffffffffffffff1673ffffffffffffffffffffffffffffffffffffffff163373ffffffffffffffffffffffffffffffffffffffff16145b61115a576040517f08c379a000000000000000000000000000000000000000000000000000000000815260040161115190611eef565b60405180910390fd5b7f000000000000000000000000000000000000000000000000000000000000000073ffffffffffffffffffffffffffffffffffffffff1663a9059cbb84846040518363ffffffff1660e01b81526004016111b5929190611f0f565b6020604051808303816000875af11580156111d4573d6000803e3d6000fd5b505050506040513d601f19601f820116820180604052508101906111f89190611f64565b905092915050565b600560009054906101000a900473ffffffffffffffffffffffffffffffffffffffff1681565b60606001805461123590611b53565b80601f016020809104026020016040519081016040528092919081815260200182805461126190611b53565b80156112ae5780601f10611283576101008083540402835291602001916112ae565b820191906000526020600020905b81548152906001019060200180831161129157829003601f168201915b5050505050905090565b600760009054906101000a900473ffffffffffffffffffffffffffffffffffffffff1673ffffffffffffffffffffffffffffffffffffffff163373ffffffffffffffffffffffffffffffffffffffff1614611348576040517f08c379a000000000000000000000000000000000000000000000000000000000815260040161133f90611d3f565b60405180910390fd5b80600960008473ffffffffffffffffffffffffffffffffffffffff1673ffffffffffffffffffffffffffffffffffffffff1681526020019081526020016000205410156113ca576040517f08c379a00000000000000000000000000000000000000000000000000000000081526004016113c190611fdd565b60405180910390fd5b80600960008473ffffffffffffffffffffffffffffffffffffffff1673ffffffffffffffffffffffffffffffffffffffff16815260200190815260200160002060008282546114199190611c8b565b9250508190555080600360008282546114329190611c8b565b92505081905550806004600082825461144b9190611c8b565b92505081905550600073ffffffffffffffffffffffffffffffffffffffff168273ffffffffffffffffffffffffffffffffffffffff167fddf252ad1be2c89b69c2b068fc378daa952ba7f163c4a11628f55a4df523b3ef836040516114b0919061196e565b60405180910390a35050565b600081600960003373ffffffffffffffffffffffffffffffffffffffff1673ffffffffffffffffffffffffffffffffffffffff168152602001908152602001600020541015611540576040517f08c379a000000000000000000000000000000000000000000000000000000000815260040161153790611bd0565b60405180910390fd5b81600960003373ffffffffffffffffffffffffffffffffffffffff1673ffffffffffffffffffffffffffffffffffffffff168152602001908152602001600020600082825461158f9190611c8b565b9250508190555081600960008573ffffffffffffffffffffffffffffffffffffffff1673ffffffffffffffffffffffffffffffffffffffff16815260200190815260200160002060008282546115e59190611cbf565b925050819055508273ffffffffffffffffffffffffffffffffffffffff163373ffffffffffffffffffffffffffffffffffffffff167fddf252ad1be2c89b69c2b068fc378daa952ba7f163c4a11628f55a4df523b3ef84604051611649919061196e565b60405180910390a36001905092915050565b600860009054906101000a900473ffffffffffffffffffffffffffffffffffffffff1681565b7f000000000000000000000000000000000000000000000000000000000000000081565b600a602052816000526040600020602052806000526040600020600091509150505481565b600080600354036116de576000905061179b565b600354670de0b6b3a76400007f000000000000000000000000000000000000000000000000000000000000000073ffffffffffffffffffffffffffffffffffffffff166370a08231306040518263ffffffff1660e01b81526004016117439190611998565b602060405180830381865afa158015611760573d6000803e3d6000fd5b505050506040513d601f19601f820116820180604052508101906117849190612012565b61178e919061203f565b61179891906120b0565b90505b90565b600081519050919050565b600082825260208201905092915050565b60005b838110156117d85780820151818401526020810190506117bd565b60008484015250505050565b6000601f19601f8301169050919050565b60006118008261179e565b61180a81856117a9565b935061181a8185602086016117ba565b611823816117e4565b840191505092915050565b6000602082019050818103600083015261184881846117f5565b905092915050565b600080fd5b600073ffffffffffffffffffffffffffffffffffffffff82169050919050565b600061188082611855565b9050919050565b61189081611875565b811461189b57600080fd5b50565b6000813590506118ad81611887565b92915050565b6000819050919050565b6118c6816118b3565b81146118d157600080fd5b50565b6000813590506118e3816118bd565b92915050565b60008060408385031215611900576118ff611850565b5b600061190e8582860161189e565b925050602061191f858286016118d4565b9150509250929050565b60008115159050919050565b61193e81611929565b82525050565b60006020820190506119596000830184611935565b92915050565b611968816118b3565b82525050565b6000602082019050611983600083018461195f565b92915050565b61199281611875565b82525050565b60006020820190506119ad6000830184611989565b92915050565b6000806000606084860312156119cc576119cb611850565b5b60006119da8682870161189e565b93505060206119eb8682870161189e565b92505060406119fc868287016118d4565b9150509250925092565b600060ff82169050919050565b611a1c81611a06565b82525050565b6000602082019050611a376000830184611a13565b92915050565b600060208284031215611a5357611a52611850565b5b6000611a618482850161189e565b91505092915050565b6000819050919050565b6000611a8f611a8a611a8584611855565b611a6a565b611855565b9050919050565b6000611aa182611a74565b9050919050565b6000611ab382611a96565b9050919050565b611ac381611aa8565b82525050565b6000602082019050611ade6000830184611aba565b92915050565b60008060408385031215611afb57611afa611850565b5b6000611b098582860161189e565b9250506020611b1a8582860161189e565b9150509250929050565b7f4e487b7100000000000000000000000000000000000000000000000000000000600052602260045260246000fd5b60006002820490506001821680611b6b57607f821691505b602082108103611b7e57611b7d611b24565b5b50919050565b7f496e73756666696369656e742062616c616e6365000000000000000000000000600082015250565b6000611bba6014836117a9565b9150611bc582611b84565b602082019050919050565b60006020820190508181036000830152611be981611bad565b9050919050565b7f416c6c6f77616e63652065786365656465640000000000000000000000000000600082015250565b6000611c266012836117a9565b9150611c3182611bf0565b602082019050919050565b60006020820190508181036000830152611c5581611c19565b9050919050565b7f4e487b7100000000000000000000000000000000000000000000000000000000600052601160045260246000fd5b6000611c96826118b3565b9150611ca1836118b3565b9250828203905081811115611cb957611cb8611c5c565b5b92915050565b6000611cca826118b3565b9150611cd5836118b3565b9250828201905080821115611ced57611cec611c5c565b5b92915050565b7f4e6f7420726564656d7074696f6e20726f757465720000000000000000000000600082015250565b6000611d296015836117a9565b9150611d3482611cf3565b602082019050919050565b60006020820190508181036000830152611d5881611d1c565b9050919050565b7f4e6f7420726577617264206d616e616765720000000000000000000000000000600082015250565b6000611d956012836117a9565b9150611da082611d5f565b602082019050919050565b60006020820190508181036000830152611dc481611d88565b9050919050565b7f4e6f74206f776e65720000000000000000000000000000000000000000000000600082015250565b6000611e016009836117a9565b9150611e0c82611dcb565b602082019050919050565b60006020820190508181036000830152611e3081611df4565b9050919050565b7f4e6f74207377617020726f757465720000000000000000000000000000000000600082015250565b6000611e6d600f836117a9565b9150611e7882611e37565b602082019050919050565b60006020820190508181036000830152611e9c81611e60565b9050919050565b7f4e6f7420617574686f72697a6564000000000000000000000000000000000000600082015250565b6000611ed9600e836117a9565b9150611ee482611ea3565b602082019050919050565b60006020820190508181036000830152611f0881611ecc565b9050919050565b6000604082019050611f246000830185611989565b611f31602083018461195f565b9392505050565b611f4181611929565b8114611f4c57600080fd5b50565b600081519050611f5e81611f38565b92915050565b600060208284031215611f7a57611f79611850565b5b6000611f8884828501611f4f565b91505092915050565b7f4e6f7420656e6f7567682062616c616e636520746f206275726e000000000000600082015250565b6000611fc7601a836117a9565b9150611fd282611f91565b602082019050919050565b60006020820190508181036000830152611ff681611fba565b9050919050565b60008151905061200c816118bd565b92915050565b60006020828403121561202857612027611850565b5b600061203684828501611ffd565b91505092915050565b600061204a826118b3565b9150612055836118b3565b9250828202612063816118b3565b9150828204841483151761207a57612079611c5c565b5b5092915050565b7f4e487b7100000000000000000000000000000000000000000000000000000000600052601260045260246000fd5b60006120bb826118b3565b91506120c6836118b3565b9250826120d6576120d5612081565b5b82820490509291505056fea26469706673582212209099c4a2a5dbea1bfe0b4ce6bceaa2a5e5beb9dc80757ce87db5d29f0fc7bad864736f6c63430008170033",
  "linkReferences": {},
  "deployedLinkReferences": {}
}