{
  "_format": "hh-sol-artifact-1",
  "contractName": "LoyaltyPoint",
  "sourceName": "contracts/LoyaltyPoint.sol",
  "abi": [
    {
      "inputs": [
        {
          "internalType": "address",
          "name": "_idrxToken",
          "type": "address"
        },
        {
          "internalType": "uint256",
          "name": "_platformFee",
          "type": "uint256"
        },
        {
          "internalType": "address",
          "name": "_feeRecipient",
          "type": "address"
        }
      ],
      "stateMutability": "nonpayable",
      "type": "constructor"
    },
    {
      "anonymous": false,
      "inputs": [
        {
          "indexed": true,
          "internalType": "address",
          "name": "merchant",
          "type": "address"
        },
        {
          "indexed": true,
          "internalType": "address",
          "name": "to",
          "type": "address"
        },
        {
          "indexed": false,
          "internalType": "uint256",
          "name": "amount",
          "type": "uint256"
        }
      ],
      "name": "IssuePoint",
      "type": "event"
    },
    {
      "anonymous": false,
      "inputs": [
        {
          "indexed": true,
          "internalType": "address",
          "name": "user",
          "type": "address"
        },
        {
          "indexed": false,
          "internalType": "uint256",
          "name": "amount",
          "type": "uint256"
        },
        {
          "indexed": false,
          "internalType": "uint256",
          "name": "fee",
          "type": "uint256"
        }
      ],
      "name": "RedeemPoint",
      "type": "event"
    },
    {
      "anonymous": false,
      "inputs": [
        {
          "indexed": true,
          "internalType": "address",
          "name": "merchant",
          "type": "address"
        },
        {
          "indexed": false,
          "internalType": "uint256",
          "name": "amount",
          "type": "uint256"
        }
      ],
      "name": "TopUpIDRX",
      "type": "event"
    },
    {
      "anonymous": false,
      "inputs": [
        {
          "indexed": true,
          "internalType": "address",
          "name": "from",
          "type": "address"
        },
        {
          "indexed": true,
          "internalType": "address",
          "name": "to",
          "type": "address"
        },
        {
          "indexed": false,
          "internalType": "uint256",
          "name": "amount",
          "type": "uint256"
        }
      ],
      "name": "TransferPoint",
      "type": "event"
    },
    {
      "anonymous": false,
      "inputs": [
        {
          "indexed": true,
          "internalType": "address",
          "name": "merchant",
          "type": "address"
        },
        {
          "indexed": false,
          "internalType": "uint256",
          "name": "amount",
          "type": "uint256"
        }
      ],
      "name": "WithdrawIDRX",
      "type": "event"
    },
    {
      "inputs": [],
      "name": "feeRecipient",
      "outputs": [
        {
          "internalType": "address",
          "name": "",
          "type": "address"
        }
      ],
      "stateMutability": "view",
      "type": "function"
    },
    {
      "inputs": [],
      "name": "idrxToken",
      "outputs": [
        {
          "internalType": "contract IERC20",
          "name": "",
          "type": "address"
        }
      ],
      "stateMutability": "view",
      "type": "function"
    },
    {
      "inputs": [
        {
          "internalType": "address",
          "name": "to",
          "type": "address"
        },
        {
          "internalType": "uint256",
          "name": "amount",
          "type": "uint256"
        }
      ],
      "name": "issuePoint",
      "outputs": [],
      "stateMutability": "nonpayable",
      "type": "function"
    },
    {
      "inputs": [
        {
          "internalType": "address",
          "name": "",
          "type": "address"
        }
      ],
      "name": "merchantQuota",
      "outputs": [
        {
          "internalType": "uint256",
          "name": "",
          "type": "uint256"
        }
      ],
      "stateMutability": "view",
      "type": "function"
    },
    {
      "inputs": [],
      "name": "owner",
      "outputs": [
        {
          "internalType": "address",
          "name": "",
          "type": "address"
        }
      ],
      "stateMutability": "view",
      "type": "function"
    },
    {
      "inputs": [],
      "name": "platformFee",
      "outputs": [
        {
          "internalType": "uint256",
          "name": "",
          "type": "uint256"
        }
      ],
      "stateMutability": "view",
      "type": "function"
    },
    {
      "inputs": [
        {
          "internalType": "uint256",
          "name": "amount",
          "type": "uint256"
        }
      ],
      "name": "redeemPoint",
      "outputs": [],
      "stateMutability": "nonpayable",
      "type": "function"
    },
    {
      "inputs": [
        {
          "internalType": "address",
          "name": "_feeRecipient",
          "type": "address"
        }
      ],
      "name": "setFeeRecipient",
      "outputs": [],
      "stateMutability": "nonpayable",
      "type": "function"
    },
    {
      "inputs": [
        {
          "internalType": "uint256",
          "name": "_platformFee",
          "type": "uint256"
        }
      ],
      "name": "setPlatformFee",
      "outputs": [],
      "stateMutability": "nonpayable",
      "type": "function"
    },
    {
      "inputs": [
        {
          "internalType": "uint256",
          "name": "amount",
          "type": "uint256"
        }
      ],
      "name": "topUpIDRX",
      "outputs": [],
      "stateMutability": "nonpayable",
      "type": "function"
    },
    {
      "inputs": [
        {
          "internalType": "address",
          "name": "to",
          "type": "address"
        },
        {
          "internalType": "uint256",
          "name": "amount",
          "type": "uint256"
        }
      ],
      "name": "transferPoint",
      "outputs": [],
      "stateMutability": "nonpayable",
      "type": "function"
    },
    {
      "inputs": [
        {
          "internalType": "address",
          "name": "",
          "type": "address"
        }
      ],
      "name": "userPoint",
      "outputs": [
        {
          "internalType": "uint256",
          "name": "",
          "type": "uint256"
        }
      ],
      "stateMutability": "view",
      "type": "function"
    },
    {
      "inputs": [
        {
          "internalType": "uint256",
          "name": "amount",
          "type": "uint256"
        }
      ],
      "name": "withdrawIDRX",
      "outputs": [],
      "stateMutability": "nonpayable",
      "type": "function"
    }
  ],
  "bytecode": "0x60a06040523480156200001157600080fd5b5060405162001b6738038062001b678339818101604052810190620000379190620001a1565b8273ffffffffffffffffffffffffffffffffffffffff1660808173ffffffffffffffffffffffffffffffffffffffff1681525050336000806101000a81548173ffffffffffffffffffffffffffffffffffffffff021916908373ffffffffffffffffffffffffffffffffffffffff1602179055508160018190555080600260006101000a81548173ffffffffffffffffffffffffffffffffffffffff021916908373ffffffffffffffffffffffffffffffffffffffff160217905550505050620001fd565b600080fd5b600073ffffffffffffffffffffffffffffffffffffffff82169050919050565b60006200012e8262000101565b9050919050565b620001408162000121565b81146200014c57600080fd5b50565b600081519050620001608162000135565b92915050565b6000819050919050565b6200017b8162000166565b81146200018757600080fd5b50565b6000815190506200019b8162000170565b92915050565b600080600060608486031215620001bd57620001bc620000fc565b5b6000620001cd868287016200014f565b9350506020620001e0868287016200018a565b9250506040620001f3868287016200014f565b9150509250925092565b60805161192b6200023c6000396000818161064301528181610860015281816109c001528181610aa601528181610dd60152610f96015261192b6000f3fe608060405234801561001057600080fd5b50600436106100cf5760003560e01c80638da5cb5b1161008c578063d6bc7c6311610066578063d6bc7c63146101ea578063e74b981b14610208578063ef84500f14610224578063f2ae536614610254576100cf565b80638da5cb5b14610194578063a6659e41146101b2578063d0fbbc6b146101ce576100cf565b8063015af3fe146100d457806312e8e2c3146100f057806326232a2e1461010c578063469048401461012a578063781e48ef146101485780637892dc8414610178575b600080fd5b6100ee60048036038101906100e991906111b3565b610270565b005b61010a600480360381019061010591906111f3565b61044a565b005b6101146104e2565b604051610121919061122f565b60405180910390f35b6101326104e8565b60405161013f9190611259565b60405180910390f35b610162600480360381019061015d9190611274565b61050e565b60405161016f919061122f565b60405180910390f35b610192600480360381019061018d91906111f3565b610526565b005b61019c61076f565b6040516101a99190611259565b60405180910390f35b6101cc60048036038101906101c791906111f3565b610793565b005b6101e860048036038101906101e391906111b3565b610bfa565b005b6101f2610dd4565b6040516101ff9190611300565b60405180910390f35b610222600480360381019061021d9190611274565b610df8565b005b61023e60048036038101906102399190611274565b610f39565b60405161024b919061122f565b60405180910390f35b61026e600480360381019061026991906111f3565b610f51565b005b600081116102b3576040517f08c379a00000000000000000000000000000000000000000000000000000000081526004016102aa90611378565b60405180910390fd5b80600460003373ffffffffffffffffffffffffffffffffffffffff1673ffffffffffffffffffffffffffffffffffffffff168152602001908152602001600020541015610335576040517f08c379a000000000000000000000000000000000000000000000000000000000815260040161032c906113e4565b60405180910390fd5b80600460003373ffffffffffffffffffffffffffffffffffffffff1673ffffffffffffffffffffffffffffffffffffffff16815260200190815260200160002060008282546103849190611433565b9250508190555080600460008473ffffffffffffffffffffffffffffffffffffffff1673ffffffffffffffffffffffffffffffffffffffff16815260200190815260200160002060008282546103da9190611467565b925050819055508173ffffffffffffffffffffffffffffffffffffffff163373ffffffffffffffffffffffffffffffffffffffff167f51fbecae6942731dbe9787b0da28f110997c37b65bc6aa8fe10507609d0e557f8360405161043e919061122f565b60405180910390a35050565b60008054906101000a900473ffffffffffffffffffffffffffffffffffffffff1673ffffffffffffffffffffffffffffffffffffffff163373ffffffffffffffffffffffffffffffffffffffff16146104d8576040517f08c379a00000000000000000000000000000000000000000000000000000000081526004016104cf906114e7565b60405180910390fd5b8060018190555050565b60015481565b600260009054906101000a900473ffffffffffffffffffffffffffffffffffffffff1681565b60046020528060005260406000206000915090505481565b60008111610569576040517f08c379a000000000000000000000000000000000000000000000000000000000815260040161056090611378565b60405180910390fd5b80600360003373ffffffffffffffffffffffffffffffffffffffff1673ffffffffffffffffffffffffffffffffffffffff1681526020019081526020016000205410156105eb576040517f08c379a00000000000000000000000000000000000000000000000000000000081526004016105e290611553565b60405180910390fd5b80600360003373ffffffffffffffffffffffffffffffffffffffff1673ffffffffffffffffffffffffffffffffffffffff168152602001908152602001600020600082825461063a9190611433565b925050819055507f000000000000000000000000000000000000000000000000000000000000000073ffffffffffffffffffffffffffffffffffffffff1663a9059cbb33836040518363ffffffff1660e01b815260040161069c929190611573565b6020604051808303816000875af11580156106bb573d6000803e3d6000fd5b505050506040513d601f19601f820116820180604052508101906106df91906115d4565b61071e576040517f08c379a00000000000000000000000000000000000000000000000000000000081526004016107159061164d565b60405180910390fd5b3373ffffffffffffffffffffffffffffffffffffffff167f854e4ea599021b725c18fa7bbc562309d560ae01756a2eea4b472b9cff58292e82604051610764919061122f565b60405180910390a250565b60008054906101000a900473ffffffffffffffffffffffffffffffffffffffff1681565b600081116107d6576040517f08c379a00000000000000000000000000000000000000000000000000000000081526004016107cd90611378565b60405180910390fd5b80600460003373ffffffffffffffffffffffffffffffffffffffff1673ffffffffffffffffffffffffffffffffffffffff168152602001908152602001600020541015610858576040517f08c379a000000000000000000000000000000000000000000000000000000000815260040161084f906113e4565b60405180910390fd5b6000819050807f000000000000000000000000000000000000000000000000000000000000000073ffffffffffffffffffffffffffffffffffffffff166370a08231306040518263ffffffff1660e01b81526004016108b79190611259565b602060405180830381865afa1580156108d4573d6000803e3d6000fd5b505050506040513d601f19601f820116820180604052508101906108f89190611682565b1015610939576040517f08c379a0000000000000000000000000000000000000000000000000000000008152600401610930906116fb565b60405180910390fd5b81600460003373ffffffffffffffffffffffffffffffffffffffff1673ffffffffffffffffffffffffffffffffffffffff16815260200190815260200160002060008282546109889190611433565b925050819055506000612710836001546109a2919061171b565b6109ac919061178c565b9050600081846109bc9190611433565b90507f000000000000000000000000000000000000000000000000000000000000000073ffffffffffffffffffffffffffffffffffffffff1663a9059cbb33836040518363ffffffff1660e01b8152600401610a19929190611573565b6020604051808303816000875af1158015610a38573d6000803e3d6000fd5b505050506040513d601f19601f82011682018060405250810190610a5c91906115d4565b610a9b576040517f08c379a0000000000000000000000000000000000000000000000000000000008152600401610a929061164d565b60405180910390fd5b6000821115610ba4577f000000000000000000000000000000000000000000000000000000000000000073ffffffffffffffffffffffffffffffffffffffff1663a9059cbb600260009054906101000a900473ffffffffffffffffffffffffffffffffffffffff16846040518363ffffffff1660e01b8152600401610b21929190611573565b6020604051808303816000875af1158015610b40573d6000803e3d6000fd5b505050506040513d601f19601f82011682018060405250810190610b6491906115d4565b610ba3576040517f08c379a0000000000000000000000000000000000000000000000000000000008152600401610b9a90611809565b60405180910390fd5b5b3373ffffffffffffffffffffffffffffffffffffffff167facdc5a658e228c77e371e4b5290d13661baad95a7796439283941742e602edce8284604051610bec929190611829565b60405180910390a250505050565b60008111610c3d576040517f08c379a0000000000000000000000000000000000000000000000000000000008152600401610c3490611378565b60405180910390fd5b80600360003373ffffffffffffffffffffffffffffffffffffffff1673ffffffffffffffffffffffffffffffffffffffff168152602001908152602001600020541015610cbf576040517f08c379a0000000000000000000000000000000000000000000000000000000008152600401610cb690611553565b60405180910390fd5b80600360003373ffffffffffffffffffffffffffffffffffffffff1673ffffffffffffffffffffffffffffffffffffffff1681526020019081526020016000206000828254610d0e9190611433565b9250508190555080600460008473ffffffffffffffffffffffffffffffffffffffff1673ffffffffffffffffffffffffffffffffffffffff1681526020019081526020016000206000828254610d649190611467565b925050819055508173ffffffffffffffffffffffffffffffffffffffff163373ffffffffffffffffffffffffffffffffffffffff167fb21454a0dffab6add2853b6a0ccffb755fc0cd4009a0e8ab1a3b9fbb2c7243ed83604051610dc8919061122f565b60405180910390a35050565b7f000000000000000000000000000000000000000000000000000000000000000081565b60008054906101000a900473ffffffffffffffffffffffffffffffffffffffff1673ffffffffffffffffffffffffffffffffffffffff163373ffffffffffffffffffffffffffffffffffffffff1614610e86576040517f08c379a0000000000000000000000000000000000000000000000000000000008152600401610e7d906114e7565b60405180910390fd5b600073ffffffffffffffffffffffffffffffffffffffff168173ffffffffffffffffffffffffffffffffffffffff1603610ef5576040517f08c379a0000000000000000000000000000000000000000000000000000000008152600401610eec9061189e565b60405180910390fd5b80600260006101000a81548173ffffffffffffffffffffffffffffffffffffffff021916908373ffffffffffffffffffffffffffffffffffffffff16021790555050565b60036020528060005260406000206000915090505481565b60008111610f94576040517f08c379a0000000000000000000000000000000000000000000000000000000008152600401610f8b90611378565b60405180910390fd5b7f000000000000000000000000000000000000000000000000000000000000000073ffffffffffffffffffffffffffffffffffffffff166323b872dd3330846040518463ffffffff1660e01b8152600401610ff1939291906118be565b6020604051808303816000875af1158015611010573d6000803e3d6000fd5b505050506040513d601f19601f8201168201806040525081019061103491906115d4565b611073576040517f08c379a000000000000000000000000000000000000000000000000000000000815260040161106a9061164d565b60405180910390fd5b80600360003373ffffffffffffffffffffffffffffffffffffffff1673ffffffffffffffffffffffffffffffffffffffff16815260200190815260200160002060008282546110c29190611467565b925050819055503373ffffffffffffffffffffffffffffffffffffffff167fff0184cf1f6408cbe29b561afa2d136385b80ed98c1607cbfc076746c81d69f68260405161110f919061122f565b60405180910390a250565b600080fd5b600073ffffffffffffffffffffffffffffffffffffffff82169050919050565b600061114a8261111f565b9050919050565b61115a8161113f565b811461116557600080fd5b50565b60008135905061117781611151565b92915050565b6000819050919050565b6111908161117d565b811461119b57600080fd5b50565b6000813590506111ad81611187565b92915050565b600080604083850312156111ca576111c961111a565b5b60006111d885828601611168565b92505060206111e98582860161119e565b9150509250929050565b6000602082840312156112095761120861111a565b5b60006112178482850161119e565b91505092915050565b6112298161117d565b82525050565b60006020820190506112446000830184611220565b92915050565b6112538161113f565b82525050565b600060208201905061126e600083018461124a565b92915050565b60006020828403121561128a5761128961111a565b5b600061129884828501611168565b91505092915050565b6000819050919050565b60006112c66112c16112bc8461111f565b6112a1565b61111f565b9050919050565b60006112d8826112ab565b9050919050565b60006112ea826112cd565b9050919050565b6112fa816112df565b82525050565b600060208201905061131560008301846112f1565b92915050565b600082825260208201905092915050565b7f416d6f756e74206d757374206265203e20300000000000000000000000000000600082015250565b600061136260128361131b565b915061136d8261132c565b602082019050919050565b6000602082019050818103600083015261139181611355565b9050919050565b7f4e6f7420656e6f75676820706f696e7400000000000000000000000000000000600082015250565b60006113ce60108361131b565b91506113d982611398565b602082019050919050565b600060208201905081810360008301526113fd816113c1565b9050919050565b7f4e487b7100000000000000000000000000000000000000000000000000000000600052601160045260246000fd5b600061143e8261117d565b91506114498361117d565b925082820390508181111561146157611460611404565b5b92915050565b60006114728261117d565b915061147d8361117d565b925082820190508082111561149557611494611404565b5b92915050565b7f4e6f7420706c6174666f726d206f776e65720000000000000000000000000000600082015250565b60006114d160128361131b565b91506114dc8261149b565b602082019050919050565b60006020820190508181036000830152611500816114c4565b9050919050565b7f4e6f7420656e6f7567682071756f746100000000000000000000000000000000600082015250565b600061153d60108361131b565b915061154882611507565b602082019050919050565b6000602082019050818103600083015261156c81611530565b9050919050565b6000604082019050611588600083018561124a565b6115956020830184611220565b9392505050565b60008115159050919050565b6115b18161159c565b81146115bc57600080fd5b50565b6000815190506115ce816115a8565b92915050565b6000602082840312156115ea576115e961111a565b5b60006115f8848285016115bf565b91505092915050565b7f49445258207472616e73666572206661696c6564000000000000000000000000600082015250565b600061163760148361131b565b915061164282611601565b602082019050919050565b600060208201905081810360008301526116668161162a565b9050919050565b60008151905061167c81611187565b92915050565b6000602082840312156116985761169761111a565b5b60006116a68482850161166d565b91505092915050565b7f4e6f7420656e6f756768204944525820696e2074726561737572790000000000600082015250565b60006116e5601b8361131b565b91506116f0826116af565b602082019050919050565b60006020820190508181036000830152611714816116d8565b9050919050565b60006117268261117d565b91506117318361117d565b925082820261173f8161117d565b9150828204841483151761175657611755611404565b5b5092915050565b7f4e487b7100000000000000000000000000000000000000000000000000000000600052601260045260246000fd5b60006117978261117d565b91506117a28361117d565b9250826117b2576117b161175d565b5b828204905092915050565b7f466565207472616e73666572206661696c656400000000000000000000000000600082015250565b60006117f360138361131b565b91506117fe826117bd565b602082019050919050565b60006020820190508181036000830152611822816117e6565b9050919050565b600060408201905061183e6000830185611220565b61184b6020830184611220565b9392505050565b7f496e76616c696420616464726573730000000000000000000000000000000000600082015250565b6000611888600f8361131b565b915061189382611852565b602082019050919050565b600060208201905081810360008301526118b78161187b565b9050919050565b60006060820190506118d3600083018661124a565b6118e0602083018561124a565b6118ed6040830184611220565b94935050505056fea264697066735822122017fbecf8921f6e9bac9ec965fc1c10c723d26fbb0a73ada77d1bd5f14f47fb0564736f6c63430008170033",
  "linkReferences": {},
  "deployedLinkReferences": {}
}