{
  "_format": "hh-sol-artifact-1",
  "contractName": "PointifyToken",
  "sourceName": "contracts/LoyaltyPoint.sol",
  "abi": [
    {
      "inputs": [
        {
          "internalType": "address",
          "name": "_idrxToken",
          "type": "address"
        }
      ],
      "stateMutability": "nonpayable",
      "type": "constructor"
    },
    {
      "anonymous": false,
      "inputs": [
        {
          "indexed": true,
          "internalType": "address",
          "name": "owner",
          "type": "address"
        },
        {
          "indexed": true,
          "internalType": "address",
          "name": "spender",
          "type": "address"
        },
        {
          "indexed": false,
          "internalType": "uint256",
          "name": "value",
          "type": "uint256"
        }
      ],
      "name": "Approval",
      "type": "event"
    },
    {
      "anonymous": false,
      "inputs": [
        {
          "indexed": true,
          "internalType": "address",
          "name": "from",
          "type": "address"
        },
        {
          "indexed": true,
          "internalType": "address",
          "name": "to",
          "type": "address"
        },
        {
          "indexed": false,
          "internalType": "uint256",
          "name": "value",
          "type": "uint256"
        }
      ],
      "name": "Transfer",
      "type": "event"
    },
    {
      "inputs": [
        {
          "internalType": "address",
          "name": "",
          "type": "address"
        },
        {
          "internalType": "address",
          "name": "",
          "type": "address"
        }
      ],
      "name": "allowance",
      "outputs": [
        {
          "internalType": "uint256",
          "name": "",
          "type": "uint256"
        }
      ],
      "stateMutability": "view",
      "type": "function"
    },
    {
      "inputs": [
        {
          "internalType": "address",
          "name": "spender",
          "type": "address"
        },
        {
          "internalType": "uint256",
          "name": "amount",
          "type": "uint256"
        }
      ],
      "name": "approve",
      "outputs": [
        {
          "internalType": "bool",
          "name": "",
          "type": "bool"
        }
      ],
      "stateMutability": "nonpayable",
      "type": "function"
    },
    {
      "inputs": [
        {
          "internalType": "address",
          "name": "",
          "type": "address"
        }
      ],
      "name": "balanceOf",
      "outputs": [
        {
          "internalType": "uint256",
          "name": "",
          "type": "uint256"
        }
      ],
      "stateMutability": "view",
      "type": "function"
    },
    {
      "inputs": [
        {
          "internalType": "address",
          "name": "from",
          "type": "address"
        },
        {
          "internalType": "uint256",
          "name": "amount",
          "type": "uint256"
        }
      ],
      "name": "burn",
      "outputs": [],
      "stateMutability": "nonpayable",
      "type": "function"
    },
    {
      "inputs": [],
      "name": "decimals",
      "outputs": [
        {
          "internalType": "uint8",
          "name": "",
          "type": "uint8"
        }
      ],
      "stateMutability": "view",
      "type": "function"
    },
    {
      "inputs": [],
      "name": "idrxToken",
      "outputs": [
        {
          "internalType": "contract IERC20",
          "name": "",
          "type": "address"
        }
      ],
      "stateMutability": "view",
      "type": "function"
    },
    {
      "inputs": [
        {
          "internalType": "address",
          "name": "to",
          "type": "address"
        },
        {
          "internalType": "uint256",
          "name": "amount",
          "type": "uint256"
        }
      ],
      "name": "mint",
      "outputs": [],
      "stateMutability": "nonpayable",
      "type": "function"
    },
    {
      "inputs": [],
      "name": "name",
      "outputs": [
        {
          "internalType": "string",
          "name": "",
          "type": "string"
        }
      ],
      "stateMutability": "view",
      "type": "function"
    },
    {
      "inputs": [
        {
          "internalType": "address",
          "name": "_treasuryManager",
          "type": "address"
        }
      ],
      "name": "setTreasuryManager",
      "outputs": [],
      "stateMutability": "nonpayable",
      "type": "function"
    },
    {
      "inputs": [],
      "name": "symbol",
      "outputs": [
        {
          "internalType": "string",
          "name": "",
          "type": "string"
        }
      ],
      "stateMutability": "view",
      "type": "function"
    },
    {
      "inputs": [],
      "name": "totalSupply",
      "outputs": [
        {
          "internalType": "uint256",
          "name": "",
          "type": "uint256"
        }
      ],
      "stateMutability": "view",
      "type": "function"
    },
    {
      "inputs": [
        {
          "internalType": "address",
          "name": "to",
          "type": "address"
        },
        {
          "internalType": "uint256",
          "name": "amount",
          "type": "uint256"
        }
      ],
      "name": "transfer",
      "outputs": [
        {
          "internalType": "bool",
          "name": "",
          "type": "bool"
        }
      ],
      "stateMutability": "nonpayable",
      "type": "function"
    },
    {
      "inputs": [
        {
          "internalType": "address",
          "name": "from",
          "type": "address"
        },
        {
          "internalType": "address",
          "name": "to",
          "type": "address"
        },
        {
          "internalType": "uint256",
          "name": "amount",
          "type": "uint256"
        }
      ],
      "name": "transferFrom",
      "outputs": [
        {
          "internalType": "bool",
          "name": "",
          "type": "bool"
        }
      ],
      "stateMutability": "nonpayable",
      "type": "function"
    },
    {
      "inputs": [],
      "name": "treasuryManager",
      "outputs": [
        {
          "internalType": "address",
          "name": "",
          "type": "address"
        }
      ],
      "stateMutability": "view",
      "type": "function"
    }
  ],
  "bytecode": "0x60a06040526040518060400160405280600e81526020017f506f696e7469667920546f6b656e000000000000000000000000000000000000815250600090816200004a91906200054e565b506040518060400160405280600381526020017f504c540000000000000000000000000000000000000000000000000000000000815250600190816200009191906200054e565b506012600260006101000a81548160ff021916908360ff160217905550348015620000bb57600080fd5b5060405162001f9e38038062001f9e8339818101604052810190620000e19190620006ae565b600073ffffffffffffffffffffffffffffffffffffffff168173ffffffffffffffffffffffffffffffffffffffff160362000153576040517f08c379a00000000000000000000000000000000000000000000000000000000081526004016200014a9062000767565b60405180910390fd5b8073ffffffffffffffffffffffffffffffffffffffff1660808173ffffffffffffffffffffffffffffffffffffffff16815250508073ffffffffffffffffffffffffffffffffffffffff166395d89b416040518163ffffffff1660e01b8152600401600060405180830381865afa925050508015620001f757506040513d6000823e3d601f19601f82011682018060405250810190620001f49190620008d9565b60015b62000239576040517f08c379a000000000000000000000000000000000000000000000000000000000815260040162000230906200097a565b60405180910390fd5b6040516020016200024a90620009f7565b604051602081830303815290604052805190602001208160405160200162000273919062000a45565b6040516020818303038152906040528051906020012014620002cc576040517f08c379a0000000000000000000000000000000000000000000000000000000008152600401620002c39062000aae565b60405180910390fd5b505062000ad0565b600081519050919050565b7f4e487b7100000000000000000000000000000000000000000000000000000000600052604160045260246000fd5b7f4e487b7100000000000000000000000000000000000000000000000000000000600052602260045260246000fd5b600060028204905060018216806200035657607f821691505b6020821081036200036c576200036b6200030e565b5b50919050565b60008190508160005260206000209050919050565b60006020601f8301049050919050565b600082821b905092915050565b600060088302620003d67fffffffffffffffffffffffffffffffffffffffffffffffffffffffffffffffff8262000397565b620003e2868362000397565b95508019841693508086168417925050509392505050565b6000819050919050565b6000819050919050565b60006200042f620004296200042384620003fa565b62000404565b620003fa565b9050919050565b6000819050919050565b6200044b836200040e565b620004636200045a8262000436565b848454620003a4565b825550505050565b600090565b6200047a6200046b565b6200048781848462000440565b505050565b5b81811015620004af57620004a360008262000470565b6001810190506200048d565b5050565b601f821115620004fe57620004c88162000372565b620004d38462000387565b81016020851015620004e3578190505b620004fb620004f28562000387565b8301826200048c565b50505b505050565b600082821c905092915050565b6000620005236000198460080262000503565b1980831691505092915050565b60006200053e838362000510565b9150826002028217905092915050565b6200055982620002d4565b67ffffffffffffffff811115620005755762000574620002df565b5b6200058182546200033d565b6200058e828285620004b3565b600060209050601f831160018114620005c65760008415620005b1578287015190505b620005bd858262000530565b8655506200062d565b601f198416620005d68662000372565b60005b828110156200060057848901518255600182019150602085019450602081019050620005d9565b868310156200062057848901516200061c601f89168262000510565b8355505b6001600288020188555050505b505050505050565b6000604051905090565b600080fd5b600080fd5b600073ffffffffffffffffffffffffffffffffffffffff82169050919050565b6000620006768262000649565b9050919050565b620006888162000669565b81146200069457600080fd5b50565b600081519050620006a8816200067d565b92915050565b600060208284031215620006c757620006c66200063f565b5b6000620006d78482850162000697565b91505092915050565b600082825260208201905092915050565b7f4944525820746f6b656e20616464726573732063616e6e6f74206265207a657260008201527f6f00000000000000000000000000000000000000000000000000000000000000602082015250565b60006200074f602183620006e0565b91506200075c82620006f1565b604082019050919050565b60006020820190508181036000830152620007828162000740565b9050919050565b600080fd5b600080fd5b6000601f19601f8301169050919050565b620007af8262000793565b810181811067ffffffffffffffff82111715620007d157620007d0620002df565b5b80604052505050565b6000620007e662000635565b9050620007f48282620007a4565b919050565b600067ffffffffffffffff821115620008175762000816620002df565b5b620008228262000793565b9050602081019050919050565b60005b838110156200084f57808201518184015260208101905062000832565b60008484015250505050565b6000620008726200086c84620007f9565b620007da565b9050828152602081018484840111156200089157620008906200078e565b5b6200089e8482856200082f565b509392505050565b600082601f830112620008be57620008bd62000789565b5b8151620008d08482602086016200085b565b91505092915050565b600060208284031215620008f257620008f16200063f565b5b600082015167ffffffffffffffff81111562000913576200091262000644565b5b6200092184828501620008a6565b91505092915050565b7f496e76616c696420494452582d4d6f636b20746f6b656e000000000000000000600082015250565b600062000962601783620006e0565b91506200096f826200092a565b602082019050919050565b60006020820190508181036000830152620009958162000953565b9050919050565b600081905092915050565b7f494452582d4d4f434b0000000000000000000000000000000000000000000000600082015250565b6000620009df6009836200099c565b9150620009ec82620009a7565b600982019050919050565b600062000a0482620009d0565b9150819050919050565b600062000a1b82620002d4565b62000a2781856200099c565b935062000a398185602086016200082f565b80840191505092915050565b600062000a53828462000a0e565b915081905092915050565b7f4d7573742075736520494452582d4d6f636b20746f6b656e0000000000000000600082015250565b600062000a96601883620006e0565b915062000aa38262000a5e565b602082019050919050565b6000602082019050818103600083015262000ac98162000a87565b9050919050565b6080516114b262000aec6000396000610d3301526114b26000f3fe608060405234801561001057600080fd5b50600436106100ea5760003560e01c806370a082311161008c578063a9059cbb11610066578063a9059cbb1461024d578063d6bc7c631461027d578063dd62ed3e1461029b578063fe47a9f2146102cb576100ea565b806370a08231146101e357806395d89b41146102135780639dc29fac14610231576100ea565b806323b872dd116100c857806323b872dd1461015b578063313ce5671461018b5780633cea70d9146101a957806340c10f19146101c7576100ea565b806306fdde03146100ef578063095ea7b31461010d57806318160ddd1461013d575b600080fd5b6100f76102e7565b6040516101049190610edf565b60405180910390f35b61012760048036038101906101229190610f9a565b610375565b6040516101349190610ff5565b60405180910390f35b610145610467565b604051610152919061101f565b60405180910390f35b6101756004803603810190610170919061103a565b61046d565b6040516101829190610ff5565b60405180910390f35b61019361075f565b6040516101a091906110a9565b60405180910390f35b6101b1610772565b6040516101be91906110d3565b60405180910390f35b6101e160048036038101906101dc9190610f9a565b610798565b005b6101fd60048036038101906101f891906110ee565b610901565b60405161020a919061101f565b60405180910390f35b61021b610919565b6040516102289190610edf565b60405180910390f35b61024b60048036038101906102469190610f9a565b6109a7565b005b61026760048036038101906102629190610f9a565b610b92565b6040516102749190610ff5565b60405180910390f35b610285610d31565b604051610292919061117a565b60405180910390f35b6102b560048036038101906102b09190611195565b610d55565b6040516102c2919061101f565b60405180910390f35b6102e560048036038101906102e091906110ee565b610d7a565b005b600080546102f490611204565b80601f016020809104026020016040519081016040528092919081815260200182805461032090611204565b801561036d5780601f106103425761010080835404028352916020019161036d565b820191906000526020600020905b81548152906001019060200180831161035057829003601f168201915b505050505081565b600081600560003373ffffffffffffffffffffffffffffffffffffffff1673ffffffffffffffffffffffffffffffffffffffff16815260200190815260200160002060008573ffffffffffffffffffffffffffffffffffffffff1673ffffffffffffffffffffffffffffffffffffffff168152602001908152602001600020819055508273ffffffffffffffffffffffffffffffffffffffff163373ffffffffffffffffffffffffffffffffffffffff167f8c5be1e5ebec7d5bd14f71427d1e84f3dd0314c0f7b2291e5b200ac8c7c3b92584604051610455919061101f565b60405180910390a36001905092915050565b60035481565b600081600460008673ffffffffffffffffffffffffffffffffffffffff1673ffffffffffffffffffffffffffffffffffffffff1681526020019081526020016000205410156104f1576040517f08c379a00000000000000000000000000000000000000000000000000000000081526004016104e890611281565b60405180910390fd5b81600560008673ffffffffffffffffffffffffffffffffffffffff1673ffffffffffffffffffffffffffffffffffffffff16815260200190815260200160002060003373ffffffffffffffffffffffffffffffffffffffff1673ffffffffffffffffffffffffffffffffffffffff1681526020019081526020016000205410156105b0576040517f08c379a00000000000000000000000000000000000000000000000000000000081526004016105a7906112ed565b60405180910390fd5b81600560008673ffffffffffffffffffffffffffffffffffffffff1673ffffffffffffffffffffffffffffffffffffffff16815260200190815260200160002060003373ffffffffffffffffffffffffffffffffffffffff1673ffffffffffffffffffffffffffffffffffffffff168152602001908152602001600020600082825461063c919061133c565b9250508190555081600460008673ffffffffffffffffffffffffffffffffffffffff1673ffffffffffffffffffffffffffffffffffffffff1681526020019081526020016000206000828254610692919061133c565b9250508190555081600460008573ffffffffffffffffffffffffffffffffffffffff1673ffffffffffffffffffffffffffffffffffffffff16815260200190815260200160002060008282546106e89190611370565b925050819055508273ffffffffffffffffffffffffffffffffffffffff168473ffffffffffffffffffffffffffffffffffffffff167fddf252ad1be2c89b69c2b068fc378daa952ba7f163c4a11628f55a4df523b3ef8460405161074c919061101f565b60405180910390a3600190509392505050565b600260009054906101000a900460ff1681565b600660009054906101000a900473ffffffffffffffffffffffffffffffffffffffff1681565b600660009054906101000a900473ffffffffffffffffffffffffffffffffffffffff1673ffffffffffffffffffffffffffffffffffffffff163373ffffffffffffffffffffffffffffffffffffffff1614610828576040517f08c379a000000000000000000000000000000000000000000000000000000000815260040161081f906113f0565b60405180910390fd5b806003600082825461083a9190611370565b9250508190555080600460008473ffffffffffffffffffffffffffffffffffffffff1673ffffffffffffffffffffffffffffffffffffffff16815260200190815260200160002060008282546108909190611370565b925050819055508173ffffffffffffffffffffffffffffffffffffffff16600073ffffffffffffffffffffffffffffffffffffffff167fddf252ad1be2c89b69c2b068fc378daa952ba7f163c4a11628f55a4df523b3ef836040516108f5919061101f565b60405180910390a35050565b60046020528060005260406000206000915090505481565b6001805461092690611204565b80601f016020809104026020016040519081016040528092919081815260200182805461095290611204565b801561099f5780601f106109745761010080835404028352916020019161099f565b820191906000526020600020905b81548152906001019060200180831161098257829003601f168201915b505050505081565b600660009054906101000a900473ffffffffffffffffffffffffffffffffffffffff1673ffffffffffffffffffffffffffffffffffffffff163373ffffffffffffffffffffffffffffffffffffffff1614610a37576040517f08c379a0000000000000000000000000000000000000000000000000000000008152600401610a2e906113f0565b60405180910390fd5b80600460008473ffffffffffffffffffffffffffffffffffffffff1673ffffffffffffffffffffffffffffffffffffffff168152602001908152602001600020541015610ab9576040517f08c379a0000000000000000000000000000000000000000000000000000000008152600401610ab090611281565b60405180910390fd5b80600460008473ffffffffffffffffffffffffffffffffffffffff1673ffffffffffffffffffffffffffffffffffffffff1681526020019081526020016000206000828254610b08919061133c565b925050819055508060036000828254610b21919061133c565b92505081905550600073ffffffffffffffffffffffffffffffffffffffff168273ffffffffffffffffffffffffffffffffffffffff167fddf252ad1be2c89b69c2b068fc378daa952ba7f163c4a11628f55a4df523b3ef83604051610b86919061101f565b60405180910390a35050565b600081600460003373ffffffffffffffffffffffffffffffffffffffff1673ffffffffffffffffffffffffffffffffffffffff168152602001908152602001600020541015610c16576040517f08c379a0000000000000000000000000000000000000000000000000000000008152600401610c0d90611281565b60405180910390fd5b81600460003373ffffffffffffffffffffffffffffffffffffffff1673ffffffffffffffffffffffffffffffffffffffff1681526020019081526020016000206000828254610c65919061133c565b9250508190555081600460008573ffffffffffffffffffffffffffffffffffffffff1673ffffffffffffffffffffffffffffffffffffffff1681526020019081526020016000206000828254610cbb9190611370565b925050819055508273ffffffffffffffffffffffffffffffffffffffff163373ffffffffffffffffffffffffffffffffffffffff167fddf252ad1be2c89b69c2b068fc378daa952ba7f163c4a11628f55a4df523b3ef84604051610d1f919061101f565b60405180910390a36001905092915050565b7f000000000000000000000000000000000000000000000000000000000000000081565b6005602052816000526040600020602052806000526040600020600091509150505481565b600073ffffffffffffffffffffffffffffffffffffffff16600660009054906101000a900473ffffffffffffffffffffffffffffffffffffffff1673ffffffffffffffffffffffffffffffffffffffff1614610e0b576040517f08c379a0000000000000000000000000000000000000000000000000000000008152600401610e029061145c565b60405180910390fd5b80600660006101000a81548173ffffffffffffffffffffffffffffffffffffffff021916908373ffffffffffffffffffffffffffffffffffffffff16021790555050565b600081519050919050565b600082825260208201905092915050565b60005b83811015610e89578082015181840152602081019050610e6e565b60008484015250505050565b6000601f19601f8301169050919050565b6000610eb182610e4f565b610ebb8185610e5a565b9350610ecb818560208601610e6b565b610ed481610e95565b840191505092915050565b60006020820190508181036000830152610ef98184610ea6565b905092915050565b600080fd5b600073ffffffffffffffffffffffffffffffffffffffff82169050919050565b6000610f3182610f06565b9050919050565b610f4181610f26565b8114610f4c57600080fd5b50565b600081359050610f5e81610f38565b92915050565b6000819050919050565b610f7781610f64565b8114610f8257600080fd5b50565b600081359050610f9481610f6e565b92915050565b60008060408385031215610fb157610fb0610f01565b5b6000610fbf85828601610f4f565b9250506020610fd085828601610f85565b9150509250929050565b60008115159050919050565b610fef81610fda565b82525050565b600060208201905061100a6000830184610fe6565b92915050565b61101981610f64565b82525050565b60006020820190506110346000830184611010565b92915050565b60008060006060848603121561105357611052610f01565b5b600061106186828701610f4f565b935050602061107286828701610f4f565b925050604061108386828701610f85565b9150509250925092565b600060ff82169050919050565b6110a38161108d565b82525050565b60006020820190506110be600083018461109a565b92915050565b6110cd81610f26565b82525050565b60006020820190506110e860008301846110c4565b92915050565b60006020828403121561110457611103610f01565b5b600061111284828501610f4f565b91505092915050565b6000819050919050565b600061114061113b61113684610f06565b61111b565b610f06565b9050919050565b600061115282611125565b9050919050565b600061116482611147565b9050919050565b61117481611159565b82525050565b600060208201905061118f600083018461116b565b92915050565b600080604083850312156111ac576111ab610f01565b5b60006111ba85828601610f4f565b92505060206111cb85828601610f4f565b9150509250929050565b7f4e487b7100000000000000000000000000000000000000000000000000000000600052602260045260246000fd5b6000600282049050600182168061121c57607f821691505b60208210810361122f5761122e6111d5565b5b50919050565b7f496e73756666696369656e742062616c616e6365000000000000000000000000600082015250565b600061126b601483610e5a565b915061127682611235565b602082019050919050565b6000602082019050818103600083015261129a8161125e565b9050919050565b7f416c6c6f77616e63652065786365656465640000000000000000000000000000600082015250565b60006112d7601283610e5a565b91506112e2826112a1565b602082019050919050565b60006020820190508181036000830152611306816112ca565b9050919050565b7f4e487b7100000000000000000000000000000000000000000000000000000000600052601160045260246000fd5b600061134782610f64565b915061135283610f64565b925082820390508181111561136a5761136961130d565b5b92915050565b600061137b82610f64565b915061138683610f64565b925082820190508082111561139e5761139d61130d565b5b92915050565b7f4e6f74207472656173757279206d616e61676572000000000000000000000000600082015250565b60006113da601483610e5a565b91506113e5826113a4565b602082019050919050565b60006020820190508181036000830152611409816113cd565b9050919050565b7f416c726561647920736574000000000000000000000000000000000000000000600082015250565b6000611446600b83610e5a565b915061145182611410565b602082019050919050565b6000602082019050818103600083015261147581611439565b905091905056fea264697066735822122049af02027a326c280230a29a77933f0018844a98e7cbb36175ccddbb91985c6464736f6c63430008170033",
  "linkReferences": {},
  "deployedLinkReferences": {}
}