{
  "_format": "hh-sol-artifact-1",
  "contractName": "RedemptionRouter",
  "sourceName": "contracts/LoyaltyPoint.sol",
  "abi": [
    {
      "inputs": [
        {
          "internalType": "address",
          "name": "_idrxToken",
          "type": "address"
        },
        {
          "internalType": "uint256",
          "name": "_platformFee",
          "type": "uint256"
        },
        {
          "internalType": "address",
          "name": "_feeRecipient",
          "type": "address"
        }
      ],
      "stateMutability": "nonpayable",
      "type": "constructor"
    },
    {
      "anonymous": false,
      "inputs": [
        {
          "indexed": true,
          "internalType": "address",
          "name": "user",
          "type": "address"
        },
        {
          "indexed": false,
          "internalType": "uint256",
          "name": "amount",
          "type": "uint256"
        },
        {
          "indexed": false,
          "internalType": "string",
          "name": "item",
          "type": "string"
        }
      ],
      "name": "ManualRedemption",
      "type": "event"
    },
    {
      "anonymous": false,
      "inputs": [
        {
          "indexed": true,
          "internalType": "address",
          "name": "user",
          "type": "address"
        },
        {
          "indexed": false,
          "internalType": "uint256",
          "name": "amount",
          "type": "uint256"
        },
        {
          "indexed": false,
          "internalType": "uint256",
          "name": "payout",
          "type": "uint256"
        },
        {
          "indexed": false,
          "internalType": "uint256",
          "name": "fee",
          "type": "uint256"
        }
      ],
      "name": "Redeemed",
      "type": "event"
    },
    {
      "inputs": [
        {
          "internalType": "uint256",
          "name": "amount",
          "type": "uint256"
        }
      ],
      "name": "emergencyWithdrawIDRX",
      "outputs": [],
      "stateMutability": "nonpayable",
      "type": "function"
    },
    {
      "inputs": [],
      "name": "feeRecipient",
      "outputs": [
        {
          "internalType": "address",
          "name": "",
          "type": "address"
        }
      ],
      "stateMutability": "view",
      "type": "function"
    },
    {
      "inputs": [],
      "name": "idrxToken",
      "outputs": [
        {
          "internalType": "contract IERC20",
          "name": "",
          "type": "address"
        }
      ],
      "stateMutability": "view",
      "type": "function"
    },
    {
      "inputs": [],
      "name": "loyaltyToken",
      "outputs": [
        {
          "internalType": "contract LoyaltyToken",
          "name": "",
          "type": "address"
        }
      ],
      "stateMutability": "view",
      "type": "function"
    },
    {
      "inputs": [
        {
          "internalType": "address",
          "name": "user",
          "type": "address"
        },
        {
          "internalType": "uint256",
          "name": "amount",
          "type": "uint256"
        },
        {
          "internalType": "string",
          "name": "item",
          "type": "string"
        },
        {
          "internalType": "address",
          "name": "merchant",
          "type": "address"
        }
      ],
      "name": "manualRedeem",
      "outputs": [],
      "stateMutability": "nonpayable",
      "type": "function"
    },
    {
      "inputs": [],
      "name": "owner",
      "outputs": [
        {
          "internalType": "address",
          "name": "",
          "type": "address"
        }
      ],
      "stateMutability": "view",
      "type": "function"
    },
    {
      "inputs": [],
      "name": "platformFee",
      "outputs": [
        {
          "internalType": "uint256",
          "name": "",
          "type": "uint256"
        }
      ],
      "stateMutability": "view",
      "type": "function"
    },
    {
      "inputs": [
        {
          "internalType": "uint256",
          "name": "amount",
          "type": "uint256"
        },
        {
          "internalType": "address",
          "name": "merchant",
          "type": "address"
        }
      ],
      "name": "redeemPoint",
      "outputs": [],
      "stateMutability": "nonpayable",
      "type": "function"
    },
    {
      "inputs": [],
      "name": "rewardManager",
      "outputs": [
        {
          "internalType": "contract RewardManager",
          "name": "",
          "type": "address"
        }
      ],
      "stateMutability": "view",
      "type": "function"
    },
    {
      "inputs": [
        {
          "internalType": "address",
          "name": "_feeRecipient",
          "type": "address"
        }
      ],
      "name": "setFeeRecipient",
      "outputs": [],
      "stateMutability": "nonpayable",
      "type": "function"
    },
    {
      "inputs": [
        {
          "internalType": "address",
          "name": "token",
          "type": "address"
        }
      ],
      "name": "setLoyaltyToken",
      "outputs": [],
      "stateMutability": "nonpayable",
      "type": "function"
    },
    {
      "inputs": [
        {
          "internalType": "uint256",
          "name": "_platformFee",
          "type": "uint256"
        }
      ],
      "name": "setPlatformFee",
      "outputs": [],
      "stateMutability": "nonpayable",
      "type": "function"
    },
    {
      "inputs": [
        {
          "internalType": "address",
          "name": "_rewardManager",
          "type": "address"
        }
      ],
      "name": "setRewardManager",
      "outputs": [],
      "stateMutability": "nonpayable",
      "type": "function"
    }
  ],
  "bytecode": "0x60a06040523480156200001157600080fd5b5060405162002287380380620022878339818101604052810190620000379190620001a1565b336000806101000a81548173ffffffffffffffffffffffffffffffffffffffff021916908373ffffffffffffffffffffffffffffffffffffffff1602179055508273ffffffffffffffffffffffffffffffffffffffff1660808173ffffffffffffffffffffffffffffffffffffffff16815250508160038190555080600460006101000a81548173ffffffffffffffffffffffffffffffffffffffff021916908373ffffffffffffffffffffffffffffffffffffffff160217905550505050620001fd565b600080fd5b600073ffffffffffffffffffffffffffffffffffffffff82169050919050565b60006200012e8262000101565b9050919050565b620001408162000121565b81146200014c57600080fd5b50565b600081519050620001608162000135565b92915050565b6000819050919050565b6200017b8162000166565b81146200018757600080fd5b50565b6000815190506200019b8162000170565b92915050565b600080600060608486031215620001bd57620001bc620000fc565b5b6000620001cd868287016200014f565b9350506020620001e0868287016200018a565b9250506040620001f3868287016200014f565b9150509250925092565b6080516120676200022060003960008181610a2a0152610e0001526120676000f3fe608060405234801561001057600080fd5b50600436106100cf5760003560e01c806386d3520d1161008c578063d6bc7c6311610066578063d6bc7c63146101da578063e74b981b146101f8578063ea5b1e3814610214578063fa786e4414610230576100cf565b806386d3520d146101845780638da5cb5b146101a0578063a6ac87e3146101be576100cf565b80630f4ef8a6146100d457806312e8e2c3146100f2578063153ee5541461010e57806326232a2e1461012a5780634690484014610148578063770aa84d14610166575b600080fd5b6100dc61024c565b6040516100e9919061145d565b60405180910390f35b61010c600480360381019061010791906114c2565b610272565b005b6101286004803603810190610123919061152d565b61034f565b005b610132610421565b60405161013f9190611569565b60405180910390f35b610150610427565b60405161015d9190611593565b60405180910390f35b61016e61044d565b60405161017b91906115cf565b60405180910390f35b61019e60048036038101906101999190611730565b610473565b005b6101a8610932565b6040516101b59190611593565b60405180910390f35b6101d860048036038101906101d3919061152d565b610956565b005b6101e2610a28565b6040516101ef91906117d4565b60405180910390f35b610212600480360381019061020d919061152d565b610a4c565b005b61022e600480360381019061022991906117ef565b610b8d565b005b61024a600480360381019061024591906114c2565b61124e565b005b600260009054906101000a900473ffffffffffffffffffffffffffffffffffffffff1681565b60008054906101000a900473ffffffffffffffffffffffffffffffffffffffff1673ffffffffffffffffffffffffffffffffffffffff163373ffffffffffffffffffffffffffffffffffffffff1614610300576040517f08c379a00000000000000000000000000000000000000000000000000000000081526004016102f79061188c565b60405180910390fd5b6103e8811115610345576040517f08c379a000000000000000000000000000000000000000000000000000000000815260040161033c906118f8565b60405180910390fd5b8060038190555050565b60008054906101000a900473ffffffffffffffffffffffffffffffffffffffff1673ffffffffffffffffffffffffffffffffffffffff163373ffffffffffffffffffffffffffffffffffffffff16146103dd576040517f08c379a00000000000000000000000000000000000000000000000000000000081526004016103d49061188c565b60405180910390fd5b80600260006101000a81548173ffffffffffffffffffffffffffffffffffffffff021916908373ffffffffffffffffffffffffffffffffffffffff16021790555050565b60035481565b600460009054906101000a900473ffffffffffffffffffffffffffffffffffffffff1681565b600160009054906101000a900473ffffffffffffffffffffffffffffffffffffffff1681565b60008054906101000a900473ffffffffffffffffffffffffffffffffffffffff1673ffffffffffffffffffffffffffffffffffffffff163373ffffffffffffffffffffffffffffffffffffffff1614610501576040517f08c379a00000000000000000000000000000000000000000000000000000000081526004016104f89061188c565b60405180910390fd5b60008311610544576040517f08c379a000000000000000000000000000000000000000000000000000000000815260040161053b90611964565b60405180910390fd5b82600160009054906101000a900473ffffffffffffffffffffffffffffffffffffffff1673ffffffffffffffffffffffffffffffffffffffff166370a08231866040518263ffffffff1660e01b81526004016105a09190611593565b602060405180830381865afa1580156105bd573d6000803e3d6000fd5b505050506040513d601f19601f820116820180604052508101906105e19190611999565b1015610622576040517f08c379a000000000000000000000000000000000000000000000000000000000815260040161061990611a12565b60405180910390fd5b600073ffffffffffffffffffffffffffffffffffffffff168173ffffffffffffffffffffffffffffffffffffffff1603610691576040517f08c379a000000000000000000000000000000000000000000000000000000000815260040161068890611a7e565b60405180910390fd5b600260009054906101000a900473ffffffffffffffffffffffffffffffffffffffff1673ffffffffffffffffffffffffffffffffffffffff1663938215cf826040518263ffffffff1660e01b81526004016106ec9190611593565b602060405180830381865afa158015610709573d6000803e3d6000fd5b505050506040513d601f19601f8201168201806040525081019061072d9190611ad6565b61076c576040517f08c379a000000000000000000000000000000000000000000000000000000000815260040161076390611b4f565b60405180910390fd5b600160009054906101000a900473ffffffffffffffffffffffffffffffffffffffff1673ffffffffffffffffffffffffffffffffffffffff166323d416548583866040518463ffffffff1660e01b81526004016107cb93929190611b6f565b6020604051808303816000875af11580156107ea573d6000803e3d6000fd5b505050506040513d601f19601f8201168201806040525081019061080e9190611ad6565b61084d576040517f08c379a000000000000000000000000000000000000000000000000000000000815260040161084490611bf2565b60405180910390fd5b600260009054906101000a900473ffffffffffffffffffffffffffffffffffffffff1673ffffffffffffffffffffffffffffffffffffffff166313a2d98182856040518363ffffffff1660e01b81526004016108aa929190611c12565b600060405180830381600087803b1580156108c457600080fd5b505af11580156108d8573d6000803e3d6000fd5b505050508373ffffffffffffffffffffffffffffffffffffffff167fcb0778295f553ba0f967718fb599a17bf9a269b220b5393764d7d0186010f44c8484604051610924929190611ca9565b60405180910390a250505050565b60008054906101000a900473ffffffffffffffffffffffffffffffffffffffff1681565b60008054906101000a900473ffffffffffffffffffffffffffffffffffffffff1673ffffffffffffffffffffffffffffffffffffffff163373ffffffffffffffffffffffffffffffffffffffff16146109e4576040517f08c379a00000000000000000000000000000000000000000000000000000000081526004016109db9061188c565b60405180910390fd5b80600160006101000a81548173ffffffffffffffffffffffffffffffffffffffff021916908373ffffffffffffffffffffffffffffffffffffffff16021790555050565b7f000000000000000000000000000000000000000000000000000000000000000081565b60008054906101000a900473ffffffffffffffffffffffffffffffffffffffff1673ffffffffffffffffffffffffffffffffffffffff163373ffffffffffffffffffffffffffffffffffffffff1614610ada576040517f08c379a0000000000000000000000000000000000000000000000000000000008152600401610ad19061188c565b60405180910390fd5b600073ffffffffffffffffffffffffffffffffffffffff168173ffffffffffffffffffffffffffffffffffffffff1603610b49576040517f08c379a0000000000000000000000000000000000000000000000000000000008152600401610b4090611d25565b60405180910390fd5b80600460006101000a81548173ffffffffffffffffffffffffffffffffffffffff021916908373ffffffffffffffffffffffffffffffffffffffff16021790555050565b60008211610bd0576040517f08c379a0000000000000000000000000000000000000000000000000000000008152600401610bc790611964565b60405180910390fd5b81600160009054906101000a900473ffffffffffffffffffffffffffffffffffffffff1673ffffffffffffffffffffffffffffffffffffffff166370a08231336040518263ffffffff1660e01b8152600401610c2c9190611593565b602060405180830381865afa158015610c49573d6000803e3d6000fd5b505050506040513d601f19601f82011682018060405250810190610c6d9190611999565b1015610cae576040517f08c379a0000000000000000000000000000000000000000000000000000000008152600401610ca590611d91565b60405180910390fd5b600073ffffffffffffffffffffffffffffffffffffffff168173ffffffffffffffffffffffffffffffffffffffff1603610d1d576040517f08c379a0000000000000000000000000000000000000000000000000000000008152600401610d1490611a7e565b60405180910390fd5b600260009054906101000a900473ffffffffffffffffffffffffffffffffffffffff1673ffffffffffffffffffffffffffffffffffffffff1663938215cf826040518263ffffffff1660e01b8152600401610d789190611593565b602060405180830381865afa158015610d95573d6000803e3d6000fd5b505050506040513d601f19601f82011682018060405250810190610db99190611ad6565b610df8576040517f08c379a0000000000000000000000000000000000000000000000000000000008152600401610def90611b4f565b60405180910390fd5b6000829050807f000000000000000000000000000000000000000000000000000000000000000073ffffffffffffffffffffffffffffffffffffffff166370a08231600160009054906101000a900473ffffffffffffffffffffffffffffffffffffffff166040518263ffffffff1660e01b8152600401610e799190611593565b602060405180830381865afa158015610e96573d6000803e3d6000fd5b505050506040513d601f19601f82011682018060405250810190610eba9190611999565b1015610efb576040517f08c379a0000000000000000000000000000000000000000000000000000000008152600401610ef290611dfd565b60405180910390fd5b600160009054906101000a900473ffffffffffffffffffffffffffffffffffffffff1673ffffffffffffffffffffffffffffffffffffffff166323d416543384866040518463ffffffff1660e01b8152600401610f5a93929190611b6f565b6020604051808303816000875af1158015610f79573d6000803e3d6000fd5b505050506040513d601f19601f82011682018060405250810190610f9d9190611ad6565b610fdc576040517f08c379a0000000000000000000000000000000000000000000000000000000008152600401610fd390611bf2565b60405180910390fd5b600061271084600354610fef9190611e4c565b610ff99190611ebd565b9050600081856110099190611eee565b9050600160009054906101000a900473ffffffffffffffffffffffffffffffffffffffff1673ffffffffffffffffffffffffffffffffffffffff1663878ba36133836040518363ffffffff1660e01b8152600401611068929190611c12565b6020604051808303816000875af1158015611087573d6000803e3d6000fd5b505050506040513d601f19601f820116820180604052508101906110ab9190611ad6565b6110ea576040517f08c379a00000000000000000000000000000000000000000000000000000000081526004016110e190611f6e565b60405180910390fd5b60008211156111f557600160009054906101000a900473ffffffffffffffffffffffffffffffffffffffff1673ffffffffffffffffffffffffffffffffffffffff1663878ba361600460009054906101000a900473ffffffffffffffffffffffffffffffffffffffff16846040518363ffffffff1660e01b8152600401611172929190611c12565b6020604051808303816000875af1158015611191573d6000803e3d6000fd5b505050506040513d601f19601f820116820180604052508101906111b59190611ad6565b6111f4576040517f08c379a00000000000000000000000000000000000000000000000000000000081526004016111eb90611fda565b60405180910390fd5b5b3373ffffffffffffffffffffffffffffffffffffffff167f484c40561359f3e3b8be9101897f8680aa82fbe1df9fd9038e0dbc628403264686838560405161123f93929190611ffa565b60405180910390a25050505050565b60008054906101000a900473ffffffffffffffffffffffffffffffffffffffff1673ffffffffffffffffffffffffffffffffffffffff163373ffffffffffffffffffffffffffffffffffffffff16146112dc576040517f08c379a00000000000000000000000000000000000000000000000000000000081526004016112d39061188c565b60405180910390fd5b600160009054906101000a900473ffffffffffffffffffffffffffffffffffffffff1673ffffffffffffffffffffffffffffffffffffffff1663878ba36160008054906101000a900473ffffffffffffffffffffffffffffffffffffffff16836040518363ffffffff1660e01b8152600401611359929190611c12565b6020604051808303816000875af1158015611378573d6000803e3d6000fd5b505050506040513d601f19601f8201168201806040525081019061139c9190611ad6565b6113db576040517f08c379a00000000000000000000000000000000000000000000000000000000081526004016113d290611f6e565b60405180910390fd5b50565b600073ffffffffffffffffffffffffffffffffffffffff82169050919050565b6000819050919050565b600061142361141e611419846113de565b6113fe565b6113de565b9050919050565b600061143582611408565b9050919050565b60006114478261142a565b9050919050565b6114578161143c565b82525050565b6000602082019050611472600083018461144e565b92915050565b6000604051905090565b600080fd5b600080fd5b6000819050919050565b61149f8161148c565b81146114aa57600080fd5b50565b6000813590506114bc81611496565b92915050565b6000602082840312156114d8576114d7611482565b5b60006114e6848285016114ad565b91505092915050565b60006114fa826113de565b9050919050565b61150a816114ef565b811461151557600080fd5b50565b60008135905061152781611501565b92915050565b60006020828403121561154357611542611482565b5b600061155184828501611518565b91505092915050565b6115638161148c565b82525050565b600060208201905061157e600083018461155a565b92915050565b61158d816114ef565b82525050565b60006020820190506115a86000830184611584565b92915050565b60006115b98261142a565b9050919050565b6115c9816115ae565b82525050565b60006020820190506115e460008301846115c0565b92915050565b600080fd5b600080fd5b6000601f19601f8301169050919050565b7f4e487b7100000000000000000000000000000000000000000000000000000000600052604160045260246000fd5b61163d826115f4565b810181811067ffffffffffffffff8211171561165c5761165b611605565b5b80604052505050565b600061166f611478565b905061167b8282611634565b919050565b600067ffffffffffffffff82111561169b5761169a611605565b5b6116a4826115f4565b9050602081019050919050565b82818337600083830152505050565b60006116d36116ce84611680565b611665565b9050828152602081018484840111156116ef576116ee6115ef565b5b6116fa8482856116b1565b509392505050565b600082601f830112611717576117166115ea565b5b81356117278482602086016116c0565b91505092915050565b6000806000806080858703121561174a57611749611482565b5b600061175887828801611518565b9450506020611769878288016114ad565b935050604085013567ffffffffffffffff81111561178a57611789611487565b5b61179687828801611702565b92505060606117a787828801611518565b91505092959194509250565b60006117be8261142a565b9050919050565b6117ce816117b3565b82525050565b60006020820190506117e960008301846117c5565b92915050565b6000806040838503121561180657611805611482565b5b6000611814858286016114ad565b925050602061182585828601611518565b9150509250929050565b600082825260208201905092915050565b7f4e6f74206f776e65720000000000000000000000000000000000000000000000600082015250565b600061187660098361182f565b915061188182611840565b602082019050919050565b600060208201905081810360008301526118a581611869565b9050919050565b7f46656520746f6f20686967680000000000000000000000000000000000000000600082015250565b60006118e2600c8361182f565b91506118ed826118ac565b602082019050919050565b60006020820190508181036000830152611911816118d5565b9050919050565b7f416d6f756e74206d757374206265203e20300000000000000000000000000000600082015250565b600061194e60128361182f565b915061195982611918565b602082019050919050565b6000602082019050818103600083015261197d81611941565b9050919050565b60008151905061199381611496565b92915050565b6000602082840312156119af576119ae611482565b5b60006119bd84828501611984565b91505092915050565b7f55736572206e6f7420656e6f75676820706f696e747300000000000000000000600082015250565b60006119fc60168361182f565b9150611a07826119c6565b602082019050919050565b60006020820190508181036000830152611a2b816119ef565b9050919050565b7f496e76616c6964206d65726368616e7420616464726573730000000000000000600082015250565b6000611a6860188361182f565b9150611a7382611a32565b602082019050919050565b60006020820190508181036000830152611a9781611a5b565b9050919050565b60008115159050919050565b611ab381611a9e565b8114611abe57600080fd5b50565b600081519050611ad081611aaa565b92915050565b600060208284031215611aec57611aeb611482565b5b6000611afa84828501611ac1565b91505092915050565b7f4d65726368616e74206e6f7420617070726f7665640000000000000000000000600082015250565b6000611b3960158361182f565b9150611b4482611b03565b602082019050919050565b60006020820190508181036000830152611b6881611b2c565b9050919050565b6000606082019050611b846000830186611584565b611b916020830185611584565b611b9e604083018461155a565b949350505050565b7f504c54207472616e7366657220746f206d65726368616e74206661696c656400600082015250565b6000611bdc601f8361182f565b9150611be782611ba6565b602082019050919050565b60006020820190508181036000830152611c0b81611bcf565b9050919050565b6000604082019050611c276000830185611584565b611c34602083018461155a565b9392505050565b600081519050919050565b60005b83811015611c64578082015181840152602081019050611c49565b60008484015250505050565b6000611c7b82611c3b565b611c85818561182f565b9350611c95818560208601611c46565b611c9e816115f4565b840191505092915050565b6000604082019050611cbe600083018561155a565b8181036020830152611cd08184611c70565b90509392505050565b7f496e76616c696420616464726573730000000000000000000000000000000000600082015250565b6000611d0f600f8361182f565b9150611d1a82611cd9565b602082019050919050565b60006020820190508181036000830152611d3e81611d02565b9050919050565b7f4e6f7420656e6f75676820706f696e7473000000000000000000000000000000600082015250565b6000611d7b60118361182f565b9150611d8682611d45565b602082019050919050565b60006020820190508181036000830152611daa81611d6e565b9050919050565b7f4e6f7420656e6f756768204944525820696e2074726561737572790000000000600082015250565b6000611de7601b8361182f565b9150611df282611db1565b602082019050919050565b60006020820190508181036000830152611e1681611dda565b9050919050565b7f4e487b7100000000000000000000000000000000000000000000000000000000600052601160045260246000fd5b6000611e578261148c565b9150611e628361148c565b9250828202611e708161148c565b91508282048414831517611e8757611e86611e1d565b5b5092915050565b7f4e487b7100000000000000000000000000000000000000000000000000000000600052601260045260246000fd5b6000611ec88261148c565b9150611ed38361148c565b925082611ee357611ee2611e8e565b5b828204905092915050565b6000611ef98261148c565b9150611f048361148c565b9250828203905081811115611f1c57611f1b611e1d565b5b92915050565b7f49445258207472616e73666572206661696c6564000000000000000000000000600082015250565b6000611f5860148361182f565b9150611f6382611f22565b602082019050919050565b60006020820190508181036000830152611f8781611f4b565b9050919050565b7f466565207472616e73666572206661696c656400000000000000000000000000600082015250565b6000611fc460138361182f565b9150611fcf82611f8e565b602082019050919050565b60006020820190508181036000830152611ff381611fb7565b9050919050565b600060608201905061200f600083018661155a565b61201c602083018561155a565b612029604083018461155a565b94935050505056fea264697066735822122001debd533d56f04a5874688f1e28d922fca45efbc52b329f32c8bbea3dc7828864736f6c63430008170033",
  "linkReferences": {},
  "deployedLinkReferences": {}
}