{
  "_format": "hh-sol-artifact-1",
  "contractName": "RewardManager",
  "sourceName": "contracts/LoyaltyPoint.sol",
  "abi": [
    {
      "inputs": [
        {
          "internalType": "address",
          "name": "_idrxToken",
          "type": "address"
        }
      ],
      "stateMutability": "nonpayable",
      "type": "constructor"
    },
    {
      "anonymous": false,
      "inputs": [
        {
          "indexed": true,
          "internalType": "address",
          "name": "merchant",
          "type": "address"
        },
        {
          "indexed": false,
          "internalType": "bool",
          "name": "approved",
          "type": "bool"
        }
      ],
      "name": "MerchantApproved",
      "type": "event"
    },
    {
      "anonymous": false,
      "inputs": [
        {
          "indexed": true,
          "internalType": "address",
          "name": "merchant",
          "type": "address"
        },
        {
          "indexed": false,
          "internalType": "uint256",
          "name": "amount",
          "type": "uint256"
        }
      ],
      "name": "TopUpIDRX",
      "type": "event"
    },
    {
      "anonymous": false,
      "inputs": [
        {
          "indexed": true,
          "internalType": "address",
          "name": "merchant",
          "type": "address"
        },
        {
          "indexed": true,
          "internalType": "address",
          "name": "user",
          "type": "address"
        },
        {
          "indexed": false,
          "internalType": "uint256",
          "name": "amount",
          "type": "uint256"
        }
      ],
      "name": "UserRewarded",
      "type": "event"
    },
    {
      "anonymous": false,
      "inputs": [
        {
          "indexed": true,
          "internalType": "address",
          "name": "merchant",
          "type": "address"
        },
        {
          "indexed": false,
          "internalType": "uint256",
          "name": "amount",
          "type": "uint256"
        }
      ],
      "name": "WithdrawIDRX",
      "type": "event"
    },
    {
      "inputs": [
        {
          "internalType": "address",
          "name": "merchant",
          "type": "address"
        },
        {
          "internalType": "uint256",
          "name": "amount",
          "type": "uint256"
        }
      ],
      "name": "addMerchantQuota",
      "outputs": [],
      "stateMutability": "nonpayable",
      "type": "function"
    },
    {
      "inputs": [
        {
          "internalType": "address",
          "name": "merchant",
          "type": "address"
        },
        {
          "internalType": "bool",
          "name": "approved",
          "type": "bool"
        }
      ],
      "name": "approveMerchant",
      "outputs": [],
      "stateMutability": "nonpayable",
      "type": "function"
    },
    {
      "inputs": [
        {
          "internalType": "uint256",
          "name": "amount",
          "type": "uint256"
        }
      ],
      "name": "emergencyWithdrawIDRX",
      "outputs": [],
      "stateMutability": "nonpayable",
      "type": "function"
    },
    {
      "inputs": [],
      "name": "idrxToken",
      "outputs": [
        {
          "internalType": "contract IERC20",
          "name": "",
          "type": "address"
        }
      ],
      "stateMutability": "view",
      "type": "function"
    },
    {
      "inputs": [
        {
          "internalType": "address",
          "name": "",
          "type": "address"
        }
      ],
      "name": "isApprovedMerchant",
      "outputs": [
        {
          "internalType": "bool",
          "name": "",
          "type": "bool"
        }
      ],
      "stateMutability": "view",
      "type": "function"
    },
    {
      "inputs": [],
      "name": "loyaltyToken",
      "outputs": [
        {
          "internalType": "contract LoyaltyToken",
          "name": "",
          "type": "address"
        }
      ],
      "stateMutability": "view",
      "type": "function"
    },
    {
      "inputs": [
        {
          "internalType": "address",
          "name": "",
          "type": "address"
        }
      ],
      "name": "merchantQuota",
      "outputs": [
        {
          "internalType": "uint256",
          "name": "",
          "type": "uint256"
        }
      ],
      "stateMutability": "view",
      "type": "function"
    },
    {
      "inputs": [],
      "name": "owner",
      "outputs": [
        {
          "internalType": "address",
          "name": "",
          "type": "address"
        }
      ],
      "stateMutability": "view",
      "type": "function"
    },
    {
      "inputs": [
        {
          "internalType": "address",
          "name": "user",
          "type": "address"
        },
        {
          "internalType": "uint256",
          "name": "amount",
          "type": "uint256"
        }
      ],
      "name": "rewardUser",
      "outputs": [],
      "stateMutability": "nonpayable",
      "type": "function"
    },
    {
      "inputs": [
        {
          "internalType": "address",
          "name": "token",
          "type": "address"
        }
      ],
      "name": "setLoyaltyToken",
      "outputs": [],
      "stateMutability": "nonpayable",
      "type": "function"
    },
    {
      "inputs": [
        {
          "internalType": "uint256",
          "name": "amount",
          "type": "uint256"
        }
      ],
      "name": "topUpIDRX",
      "outputs": [],
      "stateMutability": "nonpayable",
      "type": "function"
    },
    {
      "inputs": [
        {
          "internalType": "uint256",
          "name": "amount",
          "type": "uint256"
        }
      ],
      "name": "withdrawIDRX",
      "outputs": [],
      "stateMutability": "nonpayable",
      "type": "function"
    }
  ],
  "bytecode": "0x60a06040523480156200001157600080fd5b50604051620017833803806200178383398181016040528101906200003791906200011c565b336000806101000a81548173ffffffffffffffffffffffffffffffffffffffff021916908373ffffffffffffffffffffffffffffffffffffffff1602179055508073ffffffffffffffffffffffffffffffffffffffff1660808173ffffffffffffffffffffffffffffffffffffffff1681525050506200014e565b600080fd5b600073ffffffffffffffffffffffffffffffffffffffff82169050919050565b6000620000e482620000b7565b9050919050565b620000f681620000d7565b81146200010257600080fd5b50565b6000815190506200011681620000eb565b92915050565b600060208284031215620001355762000134620000b2565b5b6000620001458482850162000105565b91505092915050565b60805161161262000171600039600081816108b70152610c6101526116126000f3fe608060405234801561001057600080fd5b50600436106100b45760003560e01c8063a6ac87e311610071578063a6ac87e314610179578063d6bc7c6314610195578063e4e103dc146101b3578063ef84500f146101cf578063f2ae5366146101ff578063fa786e441461021b576100b4565b806313a2d981146100b9578063770aa84d146100d557806377628b2d146100f35780637892dc841461010f5780638da5cb5b1461012b578063938215cf14610149575b600080fd5b6100d360048036038101906100ce9190611030565b610237565b005b6100dd61036b565b6040516100ea91906110cf565b60405180910390f35b61010d60048036038101906101089190611122565b610391565b005b61012960048036038101906101249190611162565b6104c8565b005b61013361079f565b604051610140919061119e565b60405180910390f35b610163600480360381019061015e91906111b9565b6107c3565b60405161017091906111f5565b60405180910390f35b610193600480360381019061018e91906111b9565b6107e3565b005b61019d6108b5565b6040516101aa9190611231565b60405180910390f35b6101cd60048036038101906101c89190611030565b6108d9565b005b6101e960048036038101906101e491906111b9565b610b78565b6040516101f6919061125b565b60405180910390f35b61021960048036038101906102149190611162565b610b90565b005b61023560048036038101906102309190611162565b610e07565b005b600260008373ffffffffffffffffffffffffffffffffffffffff1673ffffffffffffffffffffffffffffffffffffffff16815260200190815260200160002060009054906101000a900460ff166102c3576040517f08c379a00000000000000000000000000000000000000000000000000000000081526004016102ba906112d3565b60405180910390fd5b80600360008473ffffffffffffffffffffffffffffffffffffffff1673ffffffffffffffffffffffffffffffffffffffff16815260200190815260200160002060008282546103129190611322565b925050819055508173ffffffffffffffffffffffffffffffffffffffff167fff0184cf1f6408cbe29b561afa2d136385b80ed98c1607cbfc076746c81d69f68260405161035f919061125b565b60405180910390a25050565b600160009054906101000a900473ffffffffffffffffffffffffffffffffffffffff1681565b60008054906101000a900473ffffffffffffffffffffffffffffffffffffffff1673ffffffffffffffffffffffffffffffffffffffff163373ffffffffffffffffffffffffffffffffffffffff161461041f576040517f08c379a0000000000000000000000000000000000000000000000000000000008152600401610416906113a2565b60405180910390fd5b80600260008473ffffffffffffffffffffffffffffffffffffffff1673ffffffffffffffffffffffffffffffffffffffff16815260200190815260200160002060006101000a81548160ff0219169083151502179055508173ffffffffffffffffffffffffffffffffffffffff167fe278be004e32c31681c3a91829decc2c525aafd7a8eaa9e2bfae82c086140ac2826040516104bc91906111f5565b60405180910390a25050565b600260003373ffffffffffffffffffffffffffffffffffffffff1673ffffffffffffffffffffffffffffffffffffffff16815260200190815260200160002060009054906101000a900460ff16610554576040517f08c379a000000000000000000000000000000000000000000000000000000000815260040161054b906112d3565b60405180910390fd5b60008111610597576040517f08c379a000000000000000000000000000000000000000000000000000000000815260040161058e9061140e565b60405180910390fd5b80600360003373ffffffffffffffffffffffffffffffffffffffff1673ffffffffffffffffffffffffffffffffffffffff168152602001908152602001600020541015610619576040517f08c379a00000000000000000000000000000000000000000000000000000000081526004016106109061147a565b60405180910390fd5b80600360003373ffffffffffffffffffffffffffffffffffffffff1673ffffffffffffffffffffffffffffffffffffffff1681526020019081526020016000206000828254610668919061149a565b92505081905550600160009054906101000a900473ffffffffffffffffffffffffffffffffffffffff1673ffffffffffffffffffffffffffffffffffffffff1663878ba36133836040518363ffffffff1660e01b81526004016106cc9291906114ce565b6020604051808303816000875af11580156106eb573d6000803e3d6000fd5b505050506040513d601f19601f8201168201806040525081019061070f919061150c565b61074e576040517f08c379a000000000000000000000000000000000000000000000000000000000815260040161074590611585565b60405180910390fd5b3373ffffffffffffffffffffffffffffffffffffffff167f854e4ea599021b725c18fa7bbc562309d560ae01756a2eea4b472b9cff58292e82604051610794919061125b565b60405180910390a250565b60008054906101000a900473ffffffffffffffffffffffffffffffffffffffff1681565b60026020528060005260406000206000915054906101000a900460ff1681565b60008054906101000a900473ffffffffffffffffffffffffffffffffffffffff1673ffffffffffffffffffffffffffffffffffffffff163373ffffffffffffffffffffffffffffffffffffffff1614610871576040517f08c379a0000000000000000000000000000000000000000000000000000000008152600401610868906113a2565b60405180910390fd5b80600160006101000a81548173ffffffffffffffffffffffffffffffffffffffff021916908373ffffffffffffffffffffffffffffffffffffffff16021790555050565b7f000000000000000000000000000000000000000000000000000000000000000081565b600260003373ffffffffffffffffffffffffffffffffffffffff1673ffffffffffffffffffffffffffffffffffffffff16815260200190815260200160002060009054906101000a900460ff16610965576040517f08c379a000000000000000000000000000000000000000000000000000000000815260040161095c906112d3565b60405180910390fd5b600081116109a8576040517f08c379a000000000000000000000000000000000000000000000000000000000815260040161099f9061140e565b60405180910390fd5b80600360003373ffffffffffffffffffffffffffffffffffffffff1673ffffffffffffffffffffffffffffffffffffffff168152602001908152602001600020541015610a2a576040517f08c379a0000000000000000000000000000000000000000000000000000000008152600401610a219061147a565b60405180910390fd5b80600360003373ffffffffffffffffffffffffffffffffffffffff1673ffffffffffffffffffffffffffffffffffffffff1681526020019081526020016000206000828254610a79919061149a565b92505081905550600160009054906101000a900473ffffffffffffffffffffffffffffffffffffffff1673ffffffffffffffffffffffffffffffffffffffff166340c10f1983836040518363ffffffff1660e01b8152600401610add9291906114ce565b600060405180830381600087803b158015610af757600080fd5b505af1158015610b0b573d6000803e3d6000fd5b505050508173ffffffffffffffffffffffffffffffffffffffff163373ffffffffffffffffffffffffffffffffffffffff167f9c0ae44522ebe783ad5c06f7fb4ee00f42fd1c981f9ac7f3abdcd60f3d642ad083604051610b6c919061125b565b60405180910390a35050565b60036020528060005260406000206000915090505481565b600260003373ffffffffffffffffffffffffffffffffffffffff1673ffffffffffffffffffffffffffffffffffffffff16815260200190815260200160002060009054906101000a900460ff16610c1c576040517f08c379a0000000000000000000000000000000000000000000000000000000008152600401610c13906112d3565b60405180910390fd5b60008111610c5f576040517f08c379a0000000000000000000000000000000000000000000000000000000008152600401610c569061140e565b60405180910390fd5b7f000000000000000000000000000000000000000000000000000000000000000073ffffffffffffffffffffffffffffffffffffffff166323b872dd33600160009054906101000a900473ffffffffffffffffffffffffffffffffffffffff16846040518463ffffffff1660e01b8152600401610cde939291906115a5565b6020604051808303816000875af1158015610cfd573d6000803e3d6000fd5b505050506040513d601f19601f82011682018060405250810190610d21919061150c565b610d60576040517f08c379a0000000000000000000000000000000000000000000000000000000008152600401610d5790611585565b60405180910390fd5b80600360003373ffffffffffffffffffffffffffffffffffffffff1673ffffffffffffffffffffffffffffffffffffffff1681526020019081526020016000206000828254610daf9190611322565b925050819055503373ffffffffffffffffffffffffffffffffffffffff167fff0184cf1f6408cbe29b561afa2d136385b80ed98c1607cbfc076746c81d69f682604051610dfc919061125b565b60405180910390a250565b60008054906101000a900473ffffffffffffffffffffffffffffffffffffffff1673ffffffffffffffffffffffffffffffffffffffff163373ffffffffffffffffffffffffffffffffffffffff1614610e95576040517f08c379a0000000000000000000000000000000000000000000000000000000008152600401610e8c906113a2565b60405180910390fd5b600160009054906101000a900473ffffffffffffffffffffffffffffffffffffffff1673ffffffffffffffffffffffffffffffffffffffff1663878ba36160008054906101000a900473ffffffffffffffffffffffffffffffffffffffff16836040518363ffffffff1660e01b8152600401610f129291906114ce565b6020604051808303816000875af1158015610f31573d6000803e3d6000fd5b505050506040513d601f19601f82011682018060405250810190610f55919061150c565b610f94576040517f08c379a0000000000000000000000000000000000000000000000000000000008152600401610f8b90611585565b60405180910390fd5b50565b600080fd5b600073ffffffffffffffffffffffffffffffffffffffff82169050919050565b6000610fc782610f9c565b9050919050565b610fd781610fbc565b8114610fe257600080fd5b50565b600081359050610ff481610fce565b92915050565b6000819050919050565b61100d81610ffa565b811461101857600080fd5b50565b60008135905061102a81611004565b92915050565b6000806040838503121561104757611046610f97565b5b600061105585828601610fe5565b92505060206110668582860161101b565b9150509250929050565b6000819050919050565b600061109561109061108b84610f9c565b611070565b610f9c565b9050919050565b60006110a78261107a565b9050919050565b60006110b98261109c565b9050919050565b6110c9816110ae565b82525050565b60006020820190506110e460008301846110c0565b92915050565b60008115159050919050565b6110ff816110ea565b811461110a57600080fd5b50565b60008135905061111c816110f6565b92915050565b6000806040838503121561113957611138610f97565b5b600061114785828601610fe5565b92505060206111588582860161110d565b9150509250929050565b60006020828403121561117857611177610f97565b5b60006111868482850161101b565b91505092915050565b61119881610fbc565b82525050565b60006020820190506111b3600083018461118f565b92915050565b6000602082840312156111cf576111ce610f97565b5b60006111dd84828501610fe5565b91505092915050565b6111ef816110ea565b82525050565b600060208201905061120a60008301846111e6565b92915050565b600061121b8261109c565b9050919050565b61122b81611210565b82525050565b60006020820190506112466000830184611222565b92915050565b61125581610ffa565b82525050565b6000602082019050611270600083018461124c565b92915050565b600082825260208201905092915050565b7f4e6f7420617070726f766564206d65726368616e740000000000000000000000600082015250565b60006112bd601583611276565b91506112c882611287565b602082019050919050565b600060208201905081810360008301526112ec816112b0565b9050919050565b7f4e487b7100000000000000000000000000000000000000000000000000000000600052601160045260246000fd5b600061132d82610ffa565b915061133883610ffa565b92508282019050808211156113505761134f6112f3565b5b92915050565b7f4e6f74206f776e65720000000000000000000000000000000000000000000000600082015250565b600061138c600983611276565b915061139782611356565b602082019050919050565b600060208201905081810360008301526113bb8161137f565b9050919050565b7f416d6f756e74206d757374206265203e20300000000000000000000000000000600082015250565b60006113f8601283611276565b9150611403826113c2565b602082019050919050565b60006020820190508181036000830152611427816113eb565b9050919050565b7f4e6f7420656e6f7567682071756f746100000000000000000000000000000000600082015250565b6000611464601083611276565b915061146f8261142e565b602082019050919050565b6000602082019050818103600083015261149381611457565b9050919050565b60006114a582610ffa565b91506114b083610ffa565b92508282039050818111156114c8576114c76112f3565b5b92915050565b60006040820190506114e3600083018561118f565b6114f0602083018461124c565b9392505050565b600081519050611506816110f6565b92915050565b60006020828403121561152257611521610f97565b5b6000611530848285016114f7565b91505092915050565b7f49445258207472616e73666572206661696c6564000000000000000000000000600082015250565b600061156f601483611276565b915061157a82611539565b602082019050919050565b6000602082019050818103600083015261159e81611562565b9050919050565b60006060820190506115ba600083018661118f565b6115c7602083018561118f565b6115d4604083018461124c565b94935050505056fea264697066735822122066ed732546340e59379ce12935fa2ee1cde5719ab986d3c1970aa4112475c19464736f6c63430008170033",
  "linkReferences": {},
  "deployedLinkReferences": {}
}