{
  "_format": "hh-sol-artifact-1",
  "contractName": "Treasury",
  "sourceName": "contracts/LoyaltyPoint.sol",
  "abi": [
    {
      "inputs": [
        {
          "internalType": "address",
          "name": "_idrxToken",
          "type": "address"
        },
        {
          "internalType": "address",
          "name": "_treasuryManager",
          "type": "address"
        }
      ],
      "stateMutability": "nonpayable",
      "type": "constructor"
    },
    {
      "inputs": [
        {
          "internalType": "address",
          "name": "to",
          "type": "address"
        },
        {
          "internalType": "uint256",
          "name": "amount",
          "type": "uint256"
        }
      ],
      "name": "emergencyWithdraw",
      "outputs": [],
      "stateMutability": "nonpayable",
      "type": "function"
    },
    {
      "inputs": [],
      "name": "getIDRXBalance",
      "outputs": [
        {
          "internalType": "uint256",
          "name": "",
          "type": "uint256"
        }
      ],
      "stateMutability": "view",
      "type": "function"
    },
    {
      "inputs": [],
      "name": "idrxToken",
      "outputs": [
        {
          "internalType": "contract IERC20",
          "name": "",
          "type": "address"
        }
      ],
      "stateMutability": "view",
      "type": "function"
    },
    {
      "inputs": [
        {
          "internalType": "address",
          "name": "to",
          "type": "address"
        },
        {
          "internalType": "uint256",
          "name": "amount",
          "type": "uint256"
        }
      ],
      "name": "transferIDRX",
      "outputs": [
        {
          "internalType": "bool",
          "name": "",
          "type": "bool"
        }
      ],
      "stateMutability": "nonpayable",
      "type": "function"
    },
    {
      "inputs": [],
      "name": "treasuryManager",
      "outputs": [
        {
          "internalType": "address",
          "name": "",
          "type": "address"
        }
      ],
      "stateMutability": "view",
      "type": "function"
    }
  ],
  "bytecode": "0x60a06040523480156200001157600080fd5b506040516200108338038062001083833981810160405281019062000037919062000356565b600073ffffffffffffffffffffffffffffffffffffffff168273ffffffffffffffffffffffffffffffffffffffff1603620000a9576040517f08c379a0000000000000000000000000000000000000000000000000000000008152600401620000a09062000424565b60405180910390fd5b600073ffffffffffffffffffffffffffffffffffffffff168173ffffffffffffffffffffffffffffffffffffffff16036200011b576040517f08c379a00000000000000000000000000000000000000000000000000000000081526004016200011290620004bc565b60405180910390fd5b8173ffffffffffffffffffffffffffffffffffffffff166395d89b416040518163ffffffff1660e01b8152600401600060405180830381865afa9250505080156200018b57506040513d6000823e3d601f19601f820116820180604052508101906200018891906200065d565b60015b620001cd576040517f08c379a0000000000000000000000000000000000000000000000000000000008152600401620001c49062000724565b60405180910390fd5b604051602001620001de90620007a1565b6040516020818303038152906040528051906020012081604051602001620002079190620007fa565b604051602081830303815290604052805190602001201462000260576040517f08c379a0000000000000000000000000000000000000000000000000000000008152600401620002579062000889565b60405180910390fd5b508173ffffffffffffffffffffffffffffffffffffffff1660808173ffffffffffffffffffffffffffffffffffffffff1681525050806000806101000a81548173ffffffffffffffffffffffffffffffffffffffff021916908373ffffffffffffffffffffffffffffffffffffffff1602179055505050620008ab565b6000604051905090565b600080fd5b600080fd5b600073ffffffffffffffffffffffffffffffffffffffff82169050919050565b60006200031e82620002f1565b9050919050565b620003308162000311565b81146200033c57600080fd5b50565b600081519050620003508162000325565b92915050565b6000806040838503121562000370576200036f620002e7565b5b600062000380858286016200033f565b925050602062000393858286016200033f565b9150509250929050565b600082825260208201905092915050565b7f4944525820746f6b656e20616464726573732063616e6e6f74206265207a657260008201527f6f00000000000000000000000000000000000000000000000000000000000000602082015250565b60006200040c6021836200039d565b91506200041982620003ae565b604082019050919050565b600060208201905081810360008301526200043f81620003fd565b9050919050565b7f5472656173757279206d616e6167657220616464726573732063616e6e6f742060008201527f6265207a65726f00000000000000000000000000000000000000000000000000602082015250565b6000620004a46027836200039d565b9150620004b18262000446565b604082019050919050565b60006020820190508181036000830152620004d78162000495565b9050919050565b600080fd5b600080fd5b6000601f19601f8301169050919050565b7f4e487b7100000000000000000000000000000000000000000000000000000000600052604160045260246000fd5b6200053382620004e8565b810181811067ffffffffffffffff82111715620005555762000554620004f9565b5b80604052505050565b60006200056a620002dd565b905062000578828262000528565b919050565b600067ffffffffffffffff8211156200059b576200059a620004f9565b5b620005a682620004e8565b9050602081019050919050565b60005b83811015620005d3578082015181840152602081019050620005b6565b60008484015250505050565b6000620005f6620005f0846200057d565b6200055e565b905082815260208101848484011115620006155762000614620004e3565b5b62000622848285620005b3565b509392505050565b600082601f830112620006425762000641620004de565b5b815162000654848260208601620005df565b91505092915050565b600060208284031215620006765762000675620002e7565b5b600082015167ffffffffffffffff811115620006975762000696620002ec565b5b620006a5848285016200062a565b91505092915050565b7f496e76616c696420494452582d4d6f636b20746f6b656e20666f72205472656160008201527f7375727900000000000000000000000000000000000000000000000000000000602082015250565b60006200070c6024836200039d565b91506200071982620006ae565b604082019050919050565b600060208201905081810360008301526200073f81620006fd565b9050919050565b600081905092915050565b7f494452582d4d4f434b0000000000000000000000000000000000000000000000600082015250565b60006200078960098362000746565b9150620007968262000751565b600982019050919050565b6000620007ae826200077a565b9150819050919050565b600081519050919050565b6000620007d082620007b8565b620007dc818562000746565b9350620007ee818560208601620005b3565b80840191505092915050565b6000620008088284620007c3565b915081905092915050565b7f5472656173757279206d7573742075736520494452582d4d6f636b20746f6b6560008201527f6e00000000000000000000000000000000000000000000000000000000000000602082015250565b6000620008716021836200039d565b91506200087e8262000813565b604082019050919050565b60006020820190508181036000830152620008a48162000862565b9050919050565b6080516107a7620008dc600039600081816101b9015281816102ed01528181610392015261043101526107a76000f3fe608060405234801561001057600080fd5b50600436106100575760003560e01c80633cea70d91461005c578063878ba3611461007a57806395ccea67146100aa578063b63e9c04146100c6578063d6bc7c63146100e4575b600080fd5b610064610102565b6040516100719190610494565b60405180910390f35b610094600480360381019061008f9190610516565b610126565b6040516100a19190610571565b60405180910390f35b6100c460048036038101906100bf9190610516565b61025d565b005b6100ce61038e565b6040516100db919061059b565b60405180910390f35b6100ec61042f565b6040516100f99190610615565b60405180910390f35b60008054906101000a900473ffffffffffffffffffffffffffffffffffffffff1681565b60008060009054906101000a900473ffffffffffffffffffffffffffffffffffffffff1673ffffffffffffffffffffffffffffffffffffffff163373ffffffffffffffffffffffffffffffffffffffff16146101b7576040517f08c379a00000000000000000000000000000000000000000000000000000000081526004016101ae9061068d565b60405180910390fd5b7f000000000000000000000000000000000000000000000000000000000000000073ffffffffffffffffffffffffffffffffffffffff1663a9059cbb84846040518363ffffffff1660e01b81526004016102129291906106ad565b6020604051808303816000875af1158015610231573d6000803e3d6000fd5b505050506040513d601f19601f820116820180604052508101906102559190610702565b905092915050565b60008054906101000a900473ffffffffffffffffffffffffffffffffffffffff1673ffffffffffffffffffffffffffffffffffffffff163373ffffffffffffffffffffffffffffffffffffffff16146102eb576040517f08c379a00000000000000000000000000000000000000000000000000000000081526004016102e29061068d565b60405180910390fd5b7f000000000000000000000000000000000000000000000000000000000000000073ffffffffffffffffffffffffffffffffffffffff1663a9059cbb83836040518363ffffffff1660e01b81526004016103469291906106ad565b6020604051808303816000875af1158015610365573d6000803e3d6000fd5b505050506040513d601f19601f820116820180604052508101906103899190610702565b505050565b60007f000000000000000000000000000000000000000000000000000000000000000073ffffffffffffffffffffffffffffffffffffffff166370a08231306040518263ffffffff1660e01b81526004016103e99190610494565b602060405180830381865afa158015610406573d6000803e3d6000fd5b505050506040513d601f19601f8201168201806040525081019061042a9190610744565b905090565b7f000000000000000000000000000000000000000000000000000000000000000081565b600073ffffffffffffffffffffffffffffffffffffffff82169050919050565b600061047e82610453565b9050919050565b61048e81610473565b82525050565b60006020820190506104a96000830184610485565b92915050565b600080fd5b6104bd81610473565b81146104c857600080fd5b50565b6000813590506104da816104b4565b92915050565b6000819050919050565b6104f3816104e0565b81146104fe57600080fd5b50565b600081359050610510816104ea565b92915050565b6000806040838503121561052d5761052c6104af565b5b600061053b858286016104cb565b925050602061054c85828601610501565b9150509250929050565b60008115159050919050565b61056b81610556565b82525050565b60006020820190506105866000830184610562565b92915050565b610595816104e0565b82525050565b60006020820190506105b0600083018461058c565b92915050565b6000819050919050565b60006105db6105d66105d184610453565b6105b6565b610453565b9050919050565b60006105ed826105c0565b9050919050565b60006105ff826105e2565b9050919050565b61060f816105f4565b82525050565b600060208201905061062a6000830184610606565b92915050565b600082825260208201905092915050565b7f4e6f74207472656173757279206d616e61676572000000000000000000000000600082015250565b6000610677601483610630565b915061068282610641565b602082019050919050565b600060208201905081810360008301526106a68161066a565b9050919050565b60006040820190506106c26000830185610485565b6106cf602083018461058c565b9392505050565b6106df81610556565b81146106ea57600080fd5b50565b6000815190506106fc816106d6565b92915050565b600060208284031215610718576107176104af565b5b6000610726848285016106ed565b91505092915050565b60008151905061073e816104ea565b92915050565b60006020828403121561075a576107596104af565b5b60006107688482850161072f565b9150509291505056fea264697066735822122092d206b01d170af10829413155584e1bf2c61dc803f406c71a7cfc129a9bda5864736f6c63430008170033",
  "linkReferences": {},
  "deployedLinkReferences": {}
}