{
  "_format": "hh-sol-artifact-1",
  "contractName": "TreasuryManager",
  "sourceName": "contracts/LoyaltyPoint.sol",
  "abi": [
    {
      "inputs": [
        {
          "internalType": "address",
          "name": "_idrxToken",
          "type": "address"
        },
        {
          "internalType": "address",
          "name": "_treasury",
          "type": "address"
        }
      ],
      "stateMutability": "nonpayable",
      "type": "constructor"
    },
    {
      "anonymous": false,
      "inputs": [
        {
          "indexed": true,
          "internalType": "address",
          "name": "merchant",
          "type": "address"
        },
        {
          "indexed": false,
          "internalType": "uint256",
          "name": "idrxAmount",
          "type": "uint256"
        },
        {
          "indexed": false,
          "internalType": "uint256",
          "name": "pltAmount",
          "type": "uint256"
        }
      ],
      "name": "IDRXSwappedToPLT",
      "type": "event"
    },
    {
      "anonymous": false,
      "inputs": [
        {
          "indexed": true,
          "internalType": "address",
          "name": "merchant",
          "type": "address"
        },
        {
          "indexed": false,
          "internalType": "bool",
          "name": "approved",
          "type": "bool"
        }
      ],
      "name": "MerchantRegistered",
      "type": "event"
    },
    {
      "anonymous": false,
      "inputs": [
        {
          "indexed": true,
          "internalType": "address",
          "name": "user",
          "type": "address"
        },
        {
          "indexed": false,
          "internalType": "uint256",
          "name": "pltAmount",
          "type": "uint256"
        },
        {
          "indexed": false,
          "internalType": "uint256",
          "name": "idrxAmount",
          "type": "uint256"
        }
      ],
      "name": "PLTSwappedToIDRX",
      "type": "event"
    },
    {
      "anonymous": false,
      "inputs": [
        {
          "indexed": true,
          "internalType": "address",
          "name": "user",
          "type": "address"
        },
        {
          "indexed": true,
          "internalType": "address",
          "name": "merchant",
          "type": "address"
        },
        {
          "indexed": false,
          "internalType": "uint256",
          "name": "pltAmount",
          "type": "uint256"
        }
      ],
      "name": "RedemptionProcessed",
      "type": "event"
    },
    {
      "anonymous": false,
      "inputs": [
        {
          "indexed": true,
          "internalType": "address",
          "name": "merchant",
          "type": "address"
        },
        {
          "indexed": true,
          "internalType": "address",
          "name": "user",
          "type": "address"
        },
        {
          "indexed": false,
          "internalType": "uint256",
          "name": "amount",
          "type": "uint256"
        }
      ],
      "name": "RewardSent",
      "type": "event"
    },
    {
      "inputs": [
        {
          "internalType": "address",
          "name": "from",
          "type": "address"
        },
        {
          "internalType": "uint256",
          "name": "amount",
          "type": "uint256"
        }
      ],
      "name": "emergencyBurn",
      "outputs": [],
      "stateMutability": "nonpayable",
      "type": "function"
    },
    {
      "inputs": [
        {
          "internalType": "address",
          "name": "to",
          "type": "address"
        },
        {
          "internalType": "uint256",
          "name": "amount",
          "type": "uint256"
        }
      ],
      "name": "emergencyMint",
      "outputs": [],
      "stateMutability": "nonpayable",
      "type": "function"
    },
    {
      "inputs": [
        {
          "internalType": "uint256",
          "name": "amount",
          "type": "uint256"
        }
      ],
      "name": "emergencyWithdrawFromTreasury",
      "outputs": [],
      "stateMutability": "nonpayable",
      "type": "function"
    },
    {
      "inputs": [],
      "name": "getBackingRatio",
      "outputs": [
        {
          "internalType": "uint256",
          "name": "",
          "type": "uint256"
        }
      ],
      "stateMutability": "view",
      "type": "function"
    },
    {
      "inputs": [],
      "name": "getTotalPLTSupply",
      "outputs": [
        {
          "internalType": "uint256",
          "name": "",
          "type": "uint256"
        }
      ],
      "stateMutability": "view",
      "type": "function"
    },
    {
      "inputs": [],
      "name": "getTreasuryIDRXBalance",
      "outputs": [
        {
          "internalType": "uint256",
          "name": "",
          "type": "uint256"
        }
      ],
      "stateMutability": "view",
      "type": "function"
    },
    {
      "inputs": [],
      "name": "idrxToken",
      "outputs": [
        {
          "internalType": "contract IERC20",
          "name": "",
          "type": "address"
        }
      ],
      "stateMutability": "view",
      "type": "function"
    },
    {
      "inputs": [
        {
          "internalType": "address",
          "name": "",
          "type": "address"
        }
      ],
      "name": "isApprovedMerchant",
      "outputs": [
        {
          "internalType": "bool",
          "name": "",
          "type": "bool"
        }
      ],
      "stateMutability": "view",
      "type": "function"
    },
    {
      "inputs": [
        {
          "internalType": "address",
          "name": "",
          "type": "address"
        }
      ],
      "name": "merchantPLTBalance",
      "outputs": [
        {
          "internalType": "uint256",
          "name": "",
          "type": "uint256"
        }
      ],
      "stateMutability": "view",
      "type": "function"
    },
    {
      "inputs": [],
      "name": "owner",
      "outputs": [
        {
          "internalType": "address",
          "name": "",
          "type": "address"
        }
      ],
      "stateMutability": "view",
      "type": "function"
    },
    {
      "inputs": [],
      "name": "pointifyToken",
      "outputs": [
        {
          "internalType": "contract PointifyToken",
          "name": "",
          "type": "address"
        }
      ],
      "stateMutability": "view",
      "type": "function"
    },
    {
      "inputs": [
        {
          "internalType": "address",
          "name": "merchant",
          "type": "address"
        },
        {
          "internalType": "uint256",
          "name": "amount",
          "type": "uint256"
        }
      ],
      "name": "redeemToMerchant",
      "outputs": [],
      "stateMutability": "nonpayable",
      "type": "function"
    },
    {
      "inputs": [
        {
          "internalType": "address",
          "name": "merchant",
          "type": "address"
        },
        {
          "internalType": "bool",
          "name": "approved",
          "type": "bool"
        }
      ],
      "name": "registerMerchant",
      "outputs": [],
      "stateMutability": "nonpayable",
      "type": "function"
    },
    {
      "inputs": [
        {
          "internalType": "address",
          "name": "user",
          "type": "address"
        },
        {
          "internalType": "uint256",
          "name": "amount",
          "type": "uint256"
        }
      ],
      "name": "sendReward",
      "outputs": [],
      "stateMutability": "nonpayable",
      "type": "function"
    },
    {
      "inputs": [
        {
          "internalType": "address",
          "name": "_pointifyToken",
          "type": "address"
        }
      ],
      "name": "setPointifyToken",
      "outputs": [],
      "stateMutability": "nonpayable",
      "type": "function"
    },
    {
      "inputs": [
        {
          "internalType": "address",
          "name": "_treasury",
          "type": "address"
        }
      ],
      "name": "setTreasury",
      "outputs": [],
      "stateMutability": "nonpayable",
      "type": "function"
    },
    {
      "inputs": [
        {
          "internalType": "uint256",
          "name": "idrxAmount",
          "type": "uint256"
        }
      ],
      "name": "swapIDRXToPLT",
      "outputs": [],
      "stateMutability": "nonpayable",
      "type": "function"
    },
    {
      "inputs": [
        {
          "internalType": "uint256",
          "name": "pltAmount",
          "type": "uint256"
        }
      ],
      "name": "swapPLTToIDRX",
      "outputs": [],
      "stateMutability": "nonpayable",
      "type": "function"
    },
    {
      "inputs": [],
      "name": "treasury",
      "outputs": [
        {
          "internalType": "address",
          "name": "",
          "type": "address"
        }
      ],
      "stateMutability": "view",
      "type": "function"
    }
  ],
  "bytecode": "0x60a06040523480156200001157600080fd5b506040516200312638038062003126833981810160405281019062000037919062000397565b336000806101000a81548173ffffffffffffffffffffffffffffffffffffffff021916908373ffffffffffffffffffffffffffffffffffffffff160217905550600073ffffffffffffffffffffffffffffffffffffffff168273ffffffffffffffffffffffffffffffffffffffff1603620000e9576040517f08c379a0000000000000000000000000000000000000000000000000000000008152600401620000e09062000465565b60405180910390fd5b600073ffffffffffffffffffffffffffffffffffffffff168173ffffffffffffffffffffffffffffffffffffffff16036200015b576040517f08c379a00000000000000000000000000000000000000000000000000000000081526004016200015290620004d7565b60405180910390fd5b8173ffffffffffffffffffffffffffffffffffffffff166395d89b416040518163ffffffff1660e01b8152600401600060405180830381865afa925050508015620001cb57506040513d6000823e3d601f19601f82011682018060405250810190620001c8919062000678565b60015b6200020d576040517f08c379a000000000000000000000000000000000000000000000000000000000815260040162000204906200073f565b60405180910390fd5b6040516020016200021e90620007bc565b604051602081830303815290604052805190602001208160405160200162000247919062000815565b6040516020818303038152906040528051906020012014620002a0576040517f08c379a00000000000000000000000000000000000000000000000000000000081526004016200029790620008a4565b60405180910390fd5b508173ffffffffffffffffffffffffffffffffffffffff1660808173ffffffffffffffffffffffffffffffffffffffff168152505080600260006101000a81548173ffffffffffffffffffffffffffffffffffffffff021916908373ffffffffffffffffffffffffffffffffffffffff1602179055505050620008c6565b6000604051905090565b600080fd5b600080fd5b600073ffffffffffffffffffffffffffffffffffffffff82169050919050565b60006200035f8262000332565b9050919050565b620003718162000352565b81146200037d57600080fd5b50565b600081519050620003918162000366565b92915050565b60008060408385031215620003b157620003b062000328565b5b6000620003c18582860162000380565b9250506020620003d48582860162000380565b9150509250929050565b600082825260208201905092915050565b7f4944525820746f6b656e20616464726573732063616e6e6f74206265207a657260008201527f6f00000000000000000000000000000000000000000000000000000000000000602082015250565b60006200044d602183620003de565b91506200045a82620003ef565b604082019050919050565b6000602082019050818103600083015262000480816200043e565b9050919050565b7f547265617375727920616464726573732063616e6e6f74206265207a65726f00600082015250565b6000620004bf601f83620003de565b9150620004cc8262000487565b602082019050919050565b60006020820190508181036000830152620004f281620004b0565b9050919050565b600080fd5b600080fd5b6000601f19601f8301169050919050565b7f4e487b7100000000000000000000000000000000000000000000000000000000600052604160045260246000fd5b6200054e8262000503565b810181811067ffffffffffffffff8211171562000570576200056f62000514565b5b80604052505050565b6000620005856200031e565b905062000593828262000543565b919050565b600067ffffffffffffffff821115620005b657620005b562000514565b5b620005c18262000503565b9050602081019050919050565b60005b83811015620005ee578082015181840152602081019050620005d1565b60008484015250505050565b6000620006116200060b8462000598565b62000579565b90508281526020810184848401111562000630576200062f620004fe565b5b6200063d848285620005ce565b509392505050565b600082601f8301126200065d576200065c620004f9565b5b81516200066f848260208601620005fa565b91505092915050565b60006020828403121562000691576200069062000328565b5b600082015167ffffffffffffffff811115620006b257620006b16200032d565b5b620006c08482850162000645565b91505092915050565b7f496e76616c696420494452582d4d6f636b20746f6b656e20666f72205472656160008201527f737572794d616e61676572000000000000000000000000000000000000000000602082015250565b600062000727602b83620003de565b91506200073482620006c9565b604082019050919050565b600060208201905081810360008301526200075a8162000718565b9050919050565b600081905092915050565b7f494452582d4d4f434b0000000000000000000000000000000000000000000000600082015250565b6000620007a460098362000761565b9150620007b1826200076c565b600982019050919050565b6000620007c98262000795565b9150819050919050565b600081519050919050565b6000620007eb82620007d3565b620007f7818562000761565b935062000809818560208601620005ce565b80840191505092915050565b6000620008238284620007de565b915081905092915050565b7f54726561737572794d616e61676572206d7573742075736520494452582d4d6f60008201527f636b20746f6b656e000000000000000000000000000000000000000000000000602082015250565b60006200088c602883620003de565b915062000899826200082e565b604082019050919050565b60006020820190508181036000830152620008bf816200087d565b9050919050565b608051612828620008fe60003960008181610ced015281816114da015281816115fd015281816118550152611c1101526128286000f3fe608060405234801561001057600080fd5b50600436106101215760003560e01c8063916973cb116100ad578063d6bc7c6311610071578063d6bc7c63146102e0578063e2db3e61146102fe578063e2f8c87a1461031a578063f0f4426014610336578063ffa320991461035257610121565b8063916973cb1461023e578063938215cf1461025c5780639d37be1d1461028c578063c151f0f1146102a8578063d593b2ce146102c457610121565b806343785dc9116100f457806343785dc9146101aa57806361b441ac146101c657806361d027b3146101e457806374b9ab4a146102025780638da5cb5b1461022057610121565b806307420a41146101265780631f5acac41461014257806325f3edd61461015e57806338fff9df1461017a575b600080fd5b610140600480360381019061013b9190611d8d565b610370565b005b61015c60048036038101906101579190611dcd565b61073f565b005b61017860048036038101906101739190611dfa565b610811565b005b610194600480360381019061018f9190611dcd565b610bb0565b6040516101a19190611e36565b60405180910390f35b6101c460048036038101906101bf9190611d8d565b610bc8565b005b6101ce610ce9565b6040516101db9190611e36565b60405180910390f35b6101ec610dac565b6040516101f99190611e60565b60405180910390f35b61020a610dd2565b6040516102179190611eda565b60405180910390f35b610228610df8565b6040516102359190611e60565b60405180910390f35b610246610e1c565b6040516102539190611e36565b60405180910390f35b61027660048036038101906102719190611dcd565b610eb4565b6040516102839190611f10565b60405180910390f35b6102a660048036038101906102a19190611dfa565b610ed4565b005b6102c260048036038101906102bd9190611d8d565b61106a565b005b6102de60048036038101906102d99190611d8d565b61118b565b005b6102e86114d8565b6040516102f59190611f4c565b60405180910390f35b61031860048036038101906103139190611f93565b6114fc565b005b610334600480360381019061032f9190611dfa565b611784565b005b610350600480360381019061034b9190611dcd565b611a8c565b005b61035a611b5e565b6040516103679190611e36565b60405180910390f35b600360003373ffffffffffffffffffffffffffffffffffffffff1673ffffffffffffffffffffffffffffffffffffffff16815260200190815260200160002060009054906101000a900460ff166103fc576040517f08c379a00000000000000000000000000000000000000000000000000000000081526004016103f390612030565b60405180910390fd5b6000811161043f576040517f08c379a00000000000000000000000000000000000000000000000000000000081526004016104369061209c565b60405180910390fd5b80600160009054906101000a900473ffffffffffffffffffffffffffffffffffffffff1673ffffffffffffffffffffffffffffffffffffffff166370a08231336040518263ffffffff1660e01b815260040161049b9190611e60565b602060405180830381865afa1580156104b8573d6000803e3d6000fd5b505050506040513d601f19601f820116820180604052508101906104dc91906120d1565b101561051d576040517f08c379a00000000000000000000000000000000000000000000000000000000081526004016105149061214a565b60405180910390fd5b80600460003373ffffffffffffffffffffffffffffffffffffffff1673ffffffffffffffffffffffffffffffffffffffff16815260200190815260200160002054101561059f576040517f08c379a0000000000000000000000000000000000000000000000000000000008152600401610596906121b6565b60405180910390fd5b600160009054906101000a900473ffffffffffffffffffffffffffffffffffffffff1673ffffffffffffffffffffffffffffffffffffffff166323b872dd3384846040518463ffffffff1660e01b81526004016105fe939291906121d6565b6020604051808303816000875af115801561061d573d6000803e3d6000fd5b505050506040513d601f19601f820116820180604052508101906106419190612222565b610680576040517f08c379a00000000000000000000000000000000000000000000000000000000081526004016106779061229b565b60405180910390fd5b80600460003373ffffffffffffffffffffffffffffffffffffffff1673ffffffffffffffffffffffffffffffffffffffff16815260200190815260200160002060008282546106cf91906122ea565b925050819055508173ffffffffffffffffffffffffffffffffffffffff163373ffffffffffffffffffffffffffffffffffffffff167f8432952c9ff89738f893e867fa3c19fde7223207c2f40ba8131f18d6ba1f3f6e836040516107339190611e36565b60405180910390a35050565b60008054906101000a900473ffffffffffffffffffffffffffffffffffffffff1673ffffffffffffffffffffffffffffffffffffffff163373ffffffffffffffffffffffffffffffffffffffff16146107cd576040517f08c379a00000000000000000000000000000000000000000000000000000000081526004016107c49061236a565b60405180910390fd5b80600160006101000a81548173ffffffffffffffffffffffffffffffffffffffff021916908373ffffffffffffffffffffffffffffffffffffffff16021790555050565b60008111610854576040517f08c379a000000000000000000000000000000000000000000000000000000000815260040161084b9061209c565b60405180910390fd5b80600160009054906101000a900473ffffffffffffffffffffffffffffffffffffffff1673ffffffffffffffffffffffffffffffffffffffff166370a08231336040518263ffffffff1660e01b81526004016108b09190611e60565b602060405180830381865afa1580156108cd573d6000803e3d6000fd5b505050506040513d601f19601f820116820180604052508101906108f191906120d1565b1015610932576040517f08c379a00000000000000000000000000000000000000000000000000000000081526004016109299061214a565b60405180910390fd5b6000600260009054906101000a900473ffffffffffffffffffffffffffffffffffffffff16905060008173ffffffffffffffffffffffffffffffffffffffff1663b63e9c046040518163ffffffff1660e01b8152600401602060405180830381865afa1580156109a6573d6000803e3d6000fd5b505050506040513d601f19601f820116820180604052508101906109ca91906120d1565b905082811015610a0f576040517f08c379a0000000000000000000000000000000000000000000000000000000008152600401610a06906123d6565b60405180910390fd5b600160009054906101000a900473ffffffffffffffffffffffffffffffffffffffff1673ffffffffffffffffffffffffffffffffffffffff16639dc29fac33856040518363ffffffff1660e01b8152600401610a6c9291906123f6565b600060405180830381600087803b158015610a8657600080fd5b505af1158015610a9a573d6000803e3d6000fd5b505050508173ffffffffffffffffffffffffffffffffffffffff1663878ba36133856040518363ffffffff1660e01b8152600401610ad99291906123f6565b6020604051808303816000875af1158015610af8573d6000803e3d6000fd5b505050506040513d601f19601f82011682018060405250810190610b1c9190612222565b610b5b576040517f08c379a0000000000000000000000000000000000000000000000000000000008152600401610b5290612491565b60405180910390fd5b3373ffffffffffffffffffffffffffffffffffffffff167f421d678323d391d317f23592bb4e0889680f8c34e684dfd221d6b79ac0dc98168485604051610ba39291906124b1565b60405180910390a2505050565b60046020528060005260406000206000915090505481565b60008054906101000a900473ffffffffffffffffffffffffffffffffffffffff1673ffffffffffffffffffffffffffffffffffffffff163373ffffffffffffffffffffffffffffffffffffffff1614610c56576040517f08c379a0000000000000000000000000000000000000000000000000000000008152600401610c4d9061236a565b60405180910390fd5b600160009054906101000a900473ffffffffffffffffffffffffffffffffffffffff1673ffffffffffffffffffffffffffffffffffffffff166340c10f1983836040518363ffffffff1660e01b8152600401610cb39291906123f6565b600060405180830381600087803b158015610ccd57600080fd5b505af1158015610ce1573d6000803e3d6000fd5b505050505050565b60007f000000000000000000000000000000000000000000000000000000000000000073ffffffffffffffffffffffffffffffffffffffff166370a08231600260009054906101000a900473ffffffffffffffffffffffffffffffffffffffff166040518263ffffffff1660e01b8152600401610d669190611e60565b602060405180830381865afa158015610d83573d6000803e3d6000fd5b505050506040513d601f19601f82011682018060405250810190610da791906120d1565b905090565b600260009054906101000a900473ffffffffffffffffffffffffffffffffffffffff1681565b600160009054906101000a900473ffffffffffffffffffffffffffffffffffffffff1681565b60008054906101000a900473ffffffffffffffffffffffffffffffffffffffff1681565b6000600160009054906101000a900473ffffffffffffffffffffffffffffffffffffffff1673ffffffffffffffffffffffffffffffffffffffff166318160ddd6040518163ffffffff1660e01b8152600401602060405180830381865afa158015610e8b573d6000803e3d6000fd5b505050506040513d601f19601f82011682018060405250810190610eaf91906120d1565b905090565b60036020528060005260406000206000915054906101000a900460ff1681565b60008054906101000a900473ffffffffffffffffffffffffffffffffffffffff1673ffffffffffffffffffffffffffffffffffffffff163373ffffffffffffffffffffffffffffffffffffffff1614610f62576040517f08c379a0000000000000000000000000000000000000000000000000000000008152600401610f599061236a565b60405180910390fd5b6000600260009054906101000a900473ffffffffffffffffffffffffffffffffffffffff1690508073ffffffffffffffffffffffffffffffffffffffff1663878ba36160008054906101000a900473ffffffffffffffffffffffffffffffffffffffff16846040518363ffffffff1660e01b8152600401610fe49291906123f6565b6020604051808303816000875af1158015611003573d6000803e3d6000fd5b505050506040513d601f19601f820116820180604052508101906110279190612222565b611066576040517f08c379a000000000000000000000000000000000000000000000000000000000815260040161105d90612526565b60405180910390fd5b5050565b60008054906101000a900473ffffffffffffffffffffffffffffffffffffffff1673ffffffffffffffffffffffffffffffffffffffff163373ffffffffffffffffffffffffffffffffffffffff16146110f8576040517f08c379a00000000000000000000000000000000000000000000000000000000081526004016110ef9061236a565b60405180910390fd5b600160009054906101000a900473ffffffffffffffffffffffffffffffffffffffff1673ffffffffffffffffffffffffffffffffffffffff16639dc29fac83836040518363ffffffff1660e01b81526004016111559291906123f6565b600060405180830381600087803b15801561116f57600080fd5b505af1158015611183573d6000803e3d6000fd5b505050505050565b600081116111ce576040517f08c379a00000000000000000000000000000000000000000000000000000000081526004016111c59061209c565b60405180910390fd5b600360008373ffffffffffffffffffffffffffffffffffffffff1673ffffffffffffffffffffffffffffffffffffffff16815260200190815260200160002060009054906101000a900460ff1661125a576040517f08c379a000000000000000000000000000000000000000000000000000000000815260040161125190612592565b60405180910390fd5b80600160009054906101000a900473ffffffffffffffffffffffffffffffffffffffff1673ffffffffffffffffffffffffffffffffffffffff166370a08231336040518263ffffffff1660e01b81526004016112b69190611e60565b602060405180830381865afa1580156112d3573d6000803e3d6000fd5b505050506040513d601f19601f820116820180604052508101906112f791906120d1565b1015611338576040517f08c379a000000000000000000000000000000000000000000000000000000000815260040161132f9061214a565b60405180910390fd5b600160009054906101000a900473ffffffffffffffffffffffffffffffffffffffff1673ffffffffffffffffffffffffffffffffffffffff166323b872dd3384846040518463ffffffff1660e01b8152600401611397939291906121d6565b6020604051808303816000875af11580156113b6573d6000803e3d6000fd5b505050506040513d601f19601f820116820180604052508101906113da9190612222565b611419576040517f08c379a00000000000000000000000000000000000000000000000000000000081526004016114109061229b565b60405180910390fd5b80600460008473ffffffffffffffffffffffffffffffffffffffff1673ffffffffffffffffffffffffffffffffffffffff168152602001908152602001600020600082825461146891906125b2565b925050819055508173ffffffffffffffffffffffffffffffffffffffff163373ffffffffffffffffffffffffffffffffffffffff167ff49e80233e375da06733fc4d8595af0326472fea02b128c5712913b28e0406b6836040516114cc9190611e36565b60405180910390a35050565b7f000000000000000000000000000000000000000000000000000000000000000081565b60008054906101000a900473ffffffffffffffffffffffffffffffffffffffff1673ffffffffffffffffffffffffffffffffffffffff163373ffffffffffffffffffffffffffffffffffffffff161461158a576040517f08c379a00000000000000000000000000000000000000000000000000000000081526004016115819061236a565b60405180910390fd5b600073ffffffffffffffffffffffffffffffffffffffff168273ffffffffffffffffffffffffffffffffffffffff16036115f9576040517f08c379a00000000000000000000000000000000000000000000000000000000081526004016115f090612632565b60405180910390fd5b60007f000000000000000000000000000000000000000000000000000000000000000073ffffffffffffffffffffffffffffffffffffffff166370a08231846040518263ffffffff1660e01b81526004016116549190611e60565b602060405180830381865afa158015611671573d6000803e3d6000fd5b505050506040513d601f19601f8201168201806040525081019061169591906120d1565b9050600081116116da576040517f08c379a00000000000000000000000000000000000000000000000000000000081526004016116d1906126c4565b60405180910390fd5b81600360008573ffffffffffffffffffffffffffffffffffffffff1673ffffffffffffffffffffffffffffffffffffffff16815260200190815260200160002060006101000a81548160ff0219169083151502179055508273ffffffffffffffffffffffffffffffffffffffff167fcbf8d92b47e3521ddd35d4b21b5774b4f88c19d2264c60ea1c3deb007552a536836040516117779190611f10565b60405180910390a2505050565b600360003373ffffffffffffffffffffffffffffffffffffffff1673ffffffffffffffffffffffffffffffffffffffff16815260200190815260200160002060009054906101000a900460ff16611810576040517f08c379a000000000000000000000000000000000000000000000000000000000815260040161180790612030565b60405180910390fd5b60008111611853576040517f08c379a000000000000000000000000000000000000000000000000000000000815260040161184a9061209c565b60405180910390fd5b7f000000000000000000000000000000000000000000000000000000000000000073ffffffffffffffffffffffffffffffffffffffff166323b872dd33600260009054906101000a900473ffffffffffffffffffffffffffffffffffffffff16846040518463ffffffff1660e01b81526004016118d2939291906121d6565b6020604051808303816000875af11580156118f1573d6000803e3d6000fd5b505050506040513d601f19601f820116820180604052508101906119159190612222565b611954576040517f08c379a000000000000000000000000000000000000000000000000000000000815260040161194b90612730565b60405180910390fd5b600160009054906101000a900473ffffffffffffffffffffffffffffffffffffffff1673ffffffffffffffffffffffffffffffffffffffff166340c10f1933836040518363ffffffff1660e01b81526004016119b19291906123f6565b600060405180830381600087803b1580156119cb57600080fd5b505af11580156119df573d6000803e3d6000fd5b5050505080600460003373ffffffffffffffffffffffffffffffffffffffff1673ffffffffffffffffffffffffffffffffffffffff1681526020019081526020016000206000828254611a3291906125b2565b925050819055503373ffffffffffffffffffffffffffffffffffffffff167f890a0ba625e92615eec8f1b109cb7ccc6dda349c82fddccc8546cf045dbe78778283604051611a819291906124b1565b60405180910390a250565b60008054906101000a900473ffffffffffffffffffffffffffffffffffffffff1673ffffffffffffffffffffffffffffffffffffffff163373ffffffffffffffffffffffffffffffffffffffff1614611b1a576040517f08c379a0000000000000000000000000000000000000000000000000000000008152600401611b119061236a565b60405180910390fd5b80600260006101000a81548173ffffffffffffffffffffffffffffffffffffffff021916908373ffffffffffffffffffffffffffffffffffffffff16021790555050565b600080600160009054906101000a900473ffffffffffffffffffffffffffffffffffffffff1673ffffffffffffffffffffffffffffffffffffffff166318160ddd6040518163ffffffff1660e01b8152600401602060405180830381865afa158015611bce573d6000803e3d6000fd5b505050506040513d601f19601f82011682018060405250810190611bf291906120d1565b905060008103611c0d57670de0b6b3a7640000915050611cf1565b60007f000000000000000000000000000000000000000000000000000000000000000073ffffffffffffffffffffffffffffffffffffffff166370a08231600260009054906101000a900473ffffffffffffffffffffffffffffffffffffffff166040518263ffffffff1660e01b8152600401611c8a9190611e60565b602060405180830381865afa158015611ca7573d6000803e3d6000fd5b505050506040513d601f19601f82011682018060405250810190611ccb91906120d1565b905081670de0b6b3a764000082611ce29190612750565b611cec91906127c1565b925050505b90565b600080fd5b600073ffffffffffffffffffffffffffffffffffffffff82169050919050565b6000611d2482611cf9565b9050919050565b611d3481611d19565b8114611d3f57600080fd5b50565b600081359050611d5181611d2b565b92915050565b6000819050919050565b611d6a81611d57565b8114611d7557600080fd5b50565b600081359050611d8781611d61565b92915050565b60008060408385031215611da457611da3611cf4565b5b6000611db285828601611d42565b9250506020611dc385828601611d78565b9150509250929050565b600060208284031215611de357611de2611cf4565b5b6000611df184828501611d42565b91505092915050565b600060208284031215611e1057611e0f611cf4565b5b6000611e1e84828501611d78565b91505092915050565b611e3081611d57565b82525050565b6000602082019050611e4b6000830184611e27565b92915050565b611e5a81611d19565b82525050565b6000602082019050611e756000830184611e51565b92915050565b6000819050919050565b6000611ea0611e9b611e9684611cf9565b611e7b565b611cf9565b9050919050565b6000611eb282611e85565b9050919050565b6000611ec482611ea7565b9050919050565b611ed481611eb9565b82525050565b6000602082019050611eef6000830184611ecb565b92915050565b60008115159050919050565b611f0a81611ef5565b82525050565b6000602082019050611f256000830184611f01565b92915050565b6000611f3682611ea7565b9050919050565b611f4681611f2b565b82525050565b6000602082019050611f616000830184611f3d565b92915050565b611f7081611ef5565b8114611f7b57600080fd5b50565b600081359050611f8d81611f67565b92915050565b60008060408385031215611faa57611fa9611cf4565b5b6000611fb885828601611d42565b9250506020611fc985828601611f7e565b9150509250929050565b600082825260208201905092915050565b7f4e6f7420617070726f766564206d65726368616e740000000000000000000000600082015250565b600061201a601583611fd3565b915061202582611fe4565b602082019050919050565b600060208201905081810360008301526120498161200d565b9050919050565b7f416d6f756e74206d757374206265203e20300000000000000000000000000000600082015250565b6000612086601283611fd3565b915061209182612050565b602082019050919050565b600060208201905081810360008301526120b581612079565b9050919050565b6000815190506120cb81611d61565b92915050565b6000602082840312156120e7576120e6611cf4565b5b60006120f5848285016120bc565b91505092915050565b7f496e73756666696369656e7420504c542062616c616e63650000000000000000600082015250565b6000612134601883611fd3565b915061213f826120fe565b602082019050919050565b6000602082019050818103600083015261216381612127565b9050919050565b7f496e73756666696369656e74206d65726368616e742071756f74610000000000600082015250565b60006121a0601b83611fd3565b91506121ab8261216a565b602082019050919050565b600060208201905081810360008301526121cf81612193565b9050919050565b60006060820190506121eb6000830186611e51565b6121f86020830185611e51565b6122056040830184611e27565b949350505050565b60008151905061221c81611f67565b92915050565b60006020828403121561223857612237611cf4565b5b60006122468482850161220d565b91505092915050565b7f504c54207472616e73666572206661696c656400000000000000000000000000600082015250565b6000612285601383611fd3565b91506122908261224f565b602082019050919050565b600060208201905081810360008301526122b481612278565b9050919050565b7f4e487b7100000000000000000000000000000000000000000000000000000000600052601160045260246000fd5b60006122f582611d57565b915061230083611d57565b9250828203905081811115612318576123176122bb565b5b92915050565b7f4e6f74206f776e65720000000000000000000000000000000000000000000000600082015250565b6000612354600983611fd3565b915061235f8261231e565b602082019050919050565b6000602082019050818103600083015261238381612347565b9050919050565b7f496e73756666696369656e742074726561737572792049445258000000000000600082015250565b60006123c0601a83611fd3565b91506123cb8261238a565b602082019050919050565b600060208201905081810360008301526123ef816123b3565b9050919050565b600060408201905061240b6000830185611e51565b6124186020830184611e27565b9392505050565b7f49445258207472616e736665722066726f6d207472656173757279206661696c60008201527f6564000000000000000000000000000000000000000000000000000000000000602082015250565b600061247b602283611fd3565b91506124868261241f565b604082019050919050565b600060208201905081810360008301526124aa8161246e565b9050919050565b60006040820190506124c66000830185611e27565b6124d36020830184611e27565b9392505050565b7f456d657267656e6379207769746864726177616c206661696c65640000000000600082015250565b6000612510601b83611fd3565b915061251b826124da565b602082019050919050565b6000602082019050818103600083015261253f81612503565b9050919050565b7f4d65726368616e74206e6f7420617070726f7665640000000000000000000000600082015250565b600061257c601583611fd3565b915061258782612546565b602082019050919050565b600060208201905081810360008301526125ab8161256f565b9050919050565b60006125bd82611d57565b91506125c883611d57565b92508282019050808211156125e0576125df6122bb565b5b92915050565b7f496e76616c6964206d65726368616e7420616464726573730000000000000000600082015250565b600061261c601883611fd3565b9150612627826125e6565b602082019050919050565b6000602082019050818103600083015261264b8161260f565b9050919050565b7f4d65726368616e74206d757374206861766520494452582d4d6f636b2062616c60008201527f616e636520746f20726567697374657200000000000000000000000000000000602082015250565b60006126ae603083611fd3565b91506126b982612652565b604082019050919050565b600060208201905081810360008301526126dd816126a1565b9050919050565b7f49445258207472616e7366657220746f207472656173757279206661696c6564600082015250565b600061271a602083611fd3565b9150612725826126e4565b602082019050919050565b600060208201905081810360008301526127498161270d565b9050919050565b600061275b82611d57565b915061276683611d57565b925082820261277481611d57565b9150828204841483151761278b5761278a6122bb565b5b5092915050565b7f4e487b7100000000000000000000000000000000000000000000000000000000600052601260045260246000fd5b60006127cc82611d57565b91506127d783611d57565b9250826127e7576127e6612792565b5b82820490509291505056fea2646970667358221220e761f8fa5040816e5d66262a08c0f466232925e770bc1eecdaf04862ea321ccc64736f6c63430008170033",
  "linkReferences": {},
  "deployedLinkReferences": {}
}