{
  "_format": "hh-sol-artifact-1",
  "contractName": "IDRXFaucet",
  "sourceName": "contracts/IDRXFaucet.sol",
  "abi": [
    {
      "inputs": [
        {
          "internalType": "string",
          "name": "name",
          "type": "string"
        },
        {
          "internalType": "string",
          "name": "symbol",
          "type": "string"
        },
        {
          "internalType": "address",
          "name": "initialAccount",
          "type": "address"
        },
        {
          "internalType": "uint256",
          "name": "initialBalance",
          "type": "uint256"
        }
      ],
      "stateMutability": "nonpayable",
      "type": "constructor"
    },
    {
      "inputs": [
        {
          "internalType": "address",
          "name": "spender",
          "type": "address"
        },
        {
          "internalType": "uint256",
          "name": "allowance",
          "type": "uint256"
        },
        {
          "internalType": "uint256",
          "name": "needed",
          "type": "uint256"
        }
      ],
      "name": "ERC20InsufficientAllowance",
      "type": "error"
    },
    {
      "inputs": [
        {
          "internalType": "address",
          "name": "sender",
          "type": "address"
        },
        {
          "internalType": "uint256",
          "name": "balance",
          "type": "uint256"
        },
        {
          "internalType": "uint256",
          "name": "needed",
          "type": "uint256"
        }
      ],
      "name": "ERC20InsufficientBalance",
      "type": "error"
    },
    {
      "inputs": [
        {
          "internalType": "address",
          "name": "approver",
          "type": "address"
        }
      ],
      "name": "ERC20InvalidApprover",
      "type": "error"
    },
    {
      "inputs": [
        {
          "internalType": "address",
          "name": "receiver",
          "type": "address"
        }
      ],
      "name": "ERC20InvalidReceiver",
      "type": "error"
    },
    {
      "inputs": [
        {
          "internalType": "address",
          "name": "sender",
          "type": "address"
        }
      ],
      "name": "ERC20InvalidSender",
      "type": "error"
    },
    {
      "inputs": [
        {
          "internalType": "address",
          "name": "spender",
          "type": "address"
        }
      ],
      "name": "ERC20InvalidSpender",
      "type": "error"
    },
    {
      "inputs": [
        {
          "internalType": "address",
          "name": "owner",
          "type": "address"
        }
      ],
      "name": "OwnableInvalidOwner",
      "type": "error"
    },
    {
      "inputs": [
        {
          "internalType": "address",
          "name": "account",
          "type": "address"
        }
      ],
      "name": "OwnableUnauthorizedAccount",
      "type": "error"
    },
    {
      "anonymous": false,
      "inputs": [
        {
          "indexed": true,
          "internalType": "address",
          "name": "owner",
          "type": "address"
        },
        {
          "indexed": true,
          "internalType": "address",
          "name": "spender",
          "type": "address"
        },
        {
          "indexed": false,
          "internalType": "uint256",
          "name": "value",
          "type": "uint256"
        }
      ],
      "name": "Approval",
      "type": "event"
    },
    {
      "anonymous": false,
      "inputs": [
        {
          "indexed": true,
          "internalType": "address",
          "name": "owner",
          "type": "address"
        },
        {
          "indexed": false,
          "internalType": "uint256",
          "name": "amount",
          "type": "uint256"
        }
      ],
      "name": "FaucetRefilled",
      "type": "event"
    },
    {
      "anonymous": false,
      "inputs": [
        {
          "indexed": true,
          "internalType": "address",
          "name": "previousOwner",
          "type": "address"
        },
        {
          "indexed": true,
          "internalType": "address",
          "name": "newOwner",
          "type": "address"
        }
      ],
      "name": "OwnershipTransferred",
      "type": "event"
    },
    {
      "anonymous": false,
      "inputs": [
        {
          "indexed": true,
          "internalType": "address",
          "name": "user",
          "type": "address"
        },
        {
          "indexed": false,
          "internalType": "uint256",
          "name": "amount",
          "type": "uint256"
        },
        {
          "indexed": false,
          "internalType": "uint256",
          "name": "timestamp",
          "type": "uint256"
        }
      ],
      "name": "TokensClaimed",
      "type": "event"
    },
    {
      "anonymous": false,
      "inputs": [
        {
          "indexed": true,
          "internalType": "address",
          "name": "from",
          "type": "address"
        },
        {
          "indexed": true,
          "internalType": "address",
          "name": "to",
          "type": "address"
        },
        {
          "indexed": false,
          "internalType": "uint256",
          "name": "value",
          "type": "uint256"
        }
      ],
      "name": "Transfer",
      "type": "event"
    },
    {
      "inputs": [],
      "name": "CLAIM_COOLDOWN",
      "outputs": [
        {
          "internalType": "uint256",
          "name": "",
          "type": "uint256"
        }
      ],
      "stateMutability": "view",
      "type": "function"
    },
    {
      "inputs": [],
      "name": "DAILY_CLAIM_AMOUNT",
      "outputs": [
        {
          "internalType": "uint256",
          "name": "",
          "type": "uint256"
        }
      ],
      "stateMutability": "view",
      "type": "function"
    },
    {
      "inputs": [
        {
          "internalType": "address",
          "name": "owner",
          "type": "address"
        },
        {
          "internalType": "address",
          "name": "spender",
          "type": "address"
        }
      ],
      "name": "allowance",
      "outputs": [
        {
          "internalType": "uint256",
          "name": "",
          "type": "uint256"
        }
      ],
      "stateMutability": "view",
      "type": "function"
    },
    {
      "inputs": [
        {
          "internalType": "address",
          "name": "spender",
          "type": "address"
        },
        {
          "internalType": "uint256",
          "name": "value",
          "type": "uint256"
        }
      ],
      "name": "approve",
      "outputs": [
        {
          "internalType": "bool",
          "name": "",
          "type": "bool"
        }
      ],
      "stateMutability": "nonpayable",
      "type": "function"
    },
    {
      "inputs": [
        {
          "internalType": "address",
          "name": "account",
          "type": "address"
        }
      ],
      "name": "balanceOf",
      "outputs": [
        {
          "internalType": "uint256",
          "name": "",
          "type": "uint256"
        }
      ],
      "stateMutability": "view",
      "type": "function"
    },
    {
      "inputs": [
        {
          "internalType": "address",
          "name": "user",
          "type": "address"
        }
      ],
      "name": "canUserClaim",
      "outputs": [
        {
          "internalType": "bool",
          "name": "canClaim",
          "type": "bool"
        },
        {
          "internalType": "uint256",
          "name": "timeUntilNextClaim",
          "type": "uint256"
        }
      ],
      "stateMutability": "view",
      "type": "function"
    },
    {
      "inputs": [],
      "name": "claim",
      "outputs": [
        {
          "internalType": "bool",
          "name": "success",
          "type": "bool"
        }
      ],
      "stateMutability": "nonpayable",
      "type": "function"
    },
    {
      "inputs": [],
      "name": "decimals",
      "outputs": [
        {
          "internalType": "uint8",
          "name": "",
          "type": "uint8"
        }
      ],
      "stateMutability": "view",
      "type": "function"
    },
    {
      "inputs": [],
      "name": "faucet",
      "outputs": [
        {
          "internalType": "bool",
          "name": "success",
          "type": "bool"
        }
      ],
      "stateMutability": "nonpayable",
      "type": "function"
    },
    {
      "inputs": [],
      "name": "getFaucetInfo",
      "outputs": [
        {
          "internalType": "uint256",
          "name": "faucetBalance",
          "type": "uint256"
        },
        {
          "internalType": "uint256",
          "name": "dailyAmount",
          "type": "uint256"
        },
        {
          "internalType": "uint256",
          "name": "cooldownPeriod",
          "type": "uint256"
        }
      ],
      "stateMutability": "view",
      "type": "function"
    },
    {
      "inputs": [
        {
          "internalType": "address",
          "name": "user",
          "type": "address"
        }
      ],
      "name": "getUserLastClaimTime",
      "outputs": [
        {
          "internalType": "uint256",
          "name": "timestamp",
          "type": "uint256"
        }
      ],
      "stateMutability": "view",
      "type": "function"
    },
    {
      "inputs": [
        {
          "internalType": "address",
          "name": "",
          "type": "address"
        }
      ],
      "name": "lastClaimTime",
      "outputs": [
        {
          "internalType": "uint256",
          "name": "",
          "type": "uint256"
        }
      ],
      "stateMutability": "view",
      "type": "function"
    },
    {
      "inputs": [
        {
          "internalType": "address",
          "name": "to",
          "type": "address"
        },
        {
          "internalType": "uint256",
          "name": "amount",
          "type": "uint256"
        }
      ],
      "name": "mint",
      "outputs": [],
      "stateMutability": "nonpayable",
      "type": "function"
    },
    {
      "inputs": [
        {
          "internalType": "address",
          "name": "to",
          "type": "address"
        },
        {
          "internalType": "uint256",
          "name": "amount",
          "type": "uint256"
        }
      ],
      "name": "mintTo",
      "outputs": [],
      "stateMutability": "nonpayable",
      "type": "function"
    },
    {
      "inputs": [],
      "name": "name",
      "outputs": [
        {
          "internalType": "string",
          "name": "",
          "type": "string"
        }
      ],
      "stateMutability": "view",
      "type": "function"
    },
    {
      "inputs": [],
      "name": "owner",
      "outputs": [
        {
          "internalType": "address",
          "name": "",
          "type": "address"
        }
      ],
      "stateMutability": "view",
      "type": "function"
    },
    {
      "inputs": [
        {
          "internalType": "uint256",
          "name": "amount",
          "type": "uint256"
        }
      ],
      "name": "refillFaucet",
      "outputs": [],
      "stateMutability": "nonpayable",
      "type": "function"
    },
    {
      "inputs": [],
      "name": "renounceOwnership",
      "outputs": [],
      "stateMutability": "nonpayable",
      "type": "function"
    },
    {
      "inputs": [],
      "name": "symbol",
      "outputs": [
        {
          "internalType": "string",
          "name": "",
          "type": "string"
        }
      ],
      "stateMutability": "view",
      "type": "function"
    },
    {
      "inputs": [],
      "name": "totalSupply",
      "outputs": [
        {
          "internalType": "uint256",
          "name": "",
          "type": "uint256"
        }
      ],
      "stateMutability": "view",
      "type": "function"
    },
    {
      "inputs": [
        {
          "internalType": "address",
          "name": "to",
          "type": "address"
        },
        {
          "internalType": "uint256",
          "name": "value",
          "type": "uint256"
        }
      ],
      "name": "transfer",
      "outputs": [
        {
          "internalType": "bool",
          "name": "",
          "type": "bool"
        }
      ],
      "stateMutability": "nonpayable",
      "type": "function"
    },
    {
      "inputs": [
        {
          "internalType": "address",
          "name": "from",
          "type": "address"
        },
        {
          "internalType": "address",
          "name": "to",
          "type": "address"
        },
        {
          "internalType": "uint256",
          "name": "value",
          "type": "uint256"
        }
      ],
      "name": "transferFrom",
      "outputs": [
        {
          "internalType": "bool",
          "name": "",
          "type": "bool"
        }
      ],
      "stateMutability": "nonpayable",
      "type": "function"
    },
    {
      "inputs": [
        {
          "internalType": "address",
          "name": "newOwner",
          "type": "address"
        }
      ],
      "name": "transferOwnership",
      "outputs": [],
      "stateMutability": "nonpayable",
      "type": "function"
    },
    {
      "inputs": [
        {
          "internalType": "uint256",
          "name": "newAmount",
          "type": "uint256"
        }
      ],
      "name": "updateClaimAmount",
      "outputs": [],
      "stateMutability": "nonpayable",
      "type": "function"
    }
  ],
  "bytecode": "0x60806040523480156200001157600080fd5b5060405162002acd38038062002acd8339818101604052810190620000379190620006c1565b8383838381848481600390816200004f9190620009b2565b508060049081620000619190620009b2565b505050600073ffffffffffffffffffffffffffffffffffffffff168173ffffffffffffffffffffffffffffffffffffffff1603620000d95760006040517f1e4fbdf7000000000000000000000000000000000000000000000000000000008152600401620000d0919062000aaa565b60405180910390fd5b620000ea816200010b60201b60201c565b50620000fd8282620001d160201b60201c565b505050505050505062000b9c565b6000600560009054906101000a900473ffffffffffffffffffffffffffffffffffffffff16905081600560006101000a81548173ffffffffffffffffffffffffffffffffffffffff021916908373ffffffffffffffffffffffffffffffffffffffff1602179055508173ffffffffffffffffffffffffffffffffffffffff168173ffffffffffffffffffffffffffffffffffffffff167f8be0079c531659141344cd1fd0a4f28419497f9722a3daafe3b4186f6b6457e060405160405180910390a35050565b600073ffffffffffffffffffffffffffffffffffffffff168273ffffffffffffffffffffffffffffffffffffffff1603620002465760006040517fec442f050000000000000000000000000000000000000000000000000000000081526004016200023d919062000aaa565b60405180910390fd5b6200025a600083836200025e60201b60201c565b5050565b600073ffffffffffffffffffffffffffffffffffffffff168373ffffffffffffffffffffffffffffffffffffffff1603620002b4578060026000828254620002a7919062000af6565b925050819055506200038a565b60008060008573ffffffffffffffffffffffffffffffffffffffff1673ffffffffffffffffffffffffffffffffffffffff1681526020019081526020016000205490508181101562000343578381836040517fe450d38c0000000000000000000000000000000000000000000000000000000081526004016200033a9392919062000b42565b60405180910390fd5b8181036000808673ffffffffffffffffffffffffffffffffffffffff1673ffffffffffffffffffffffffffffffffffffffff16815260200190815260200160002081905550505b600073ffffffffffffffffffffffffffffffffffffffff168273ffffffffffffffffffffffffffffffffffffffff1603620003d5578060026000828254039250508190555062000422565b806000808473ffffffffffffffffffffffffffffffffffffffff1673ffffffffffffffffffffffffffffffffffffffff168152602001908152602001600020600082825401925050819055505b8173ffffffffffffffffffffffffffffffffffffffff168373ffffffffffffffffffffffffffffffffffffffff167fddf252ad1be2c89b69c2b068fc378daa952ba7f163c4a11628f55a4df523b3ef8360405162000481919062000b7f565b60405180910390a3505050565b6000604051905090565b600080fd5b600080fd5b600080fd5b600080fd5b6000601f19601f8301169050919050565b7f4e487b7100000000000000000000000000000000000000000000000000000000600052604160045260246000fd5b620004f782620004ac565b810181811067ffffffffffffffff82111715620005195762000518620004bd565b5b80604052505050565b60006200052e6200048e565b90506200053c8282620004ec565b919050565b600067ffffffffffffffff8211156200055f576200055e620004bd565b5b6200056a82620004ac565b9050602081019050919050565b60005b83811015620005975780820151818401526020810190506200057a565b60008484015250505050565b6000620005ba620005b48462000541565b62000522565b905082815260208101848484011115620005d957620005d8620004a7565b5b620005e684828562000577565b509392505050565b600082601f830112620006065762000605620004a2565b5b815162000618848260208601620005a3565b91505092915050565b600073ffffffffffffffffffffffffffffffffffffffff82169050919050565b60006200064e8262000621565b9050919050565b620006608162000641565b81146200066c57600080fd5b50565b600081519050620006808162000655565b92915050565b6000819050919050565b6200069b8162000686565b8114620006a757600080fd5b50565b600081519050620006bb8162000690565b92915050565b60008060008060808587031215620006de57620006dd62000498565b5b600085015167ffffffffffffffff811115620006ff57620006fe6200049d565b5b6200070d87828801620005ee565b945050602085015167ffffffffffffffff8111156200073157620007306200049d565b5b6200073f87828801620005ee565b935050604062000752878288016200066f565b92505060606200076587828801620006aa565b91505092959194509250565b600081519050919050565b7f4e487b7100000000000000000000000000000000000000000000000000000000600052602260045260246000fd5b60006002820490506001821680620007c457607f821691505b602082108103620007da57620007d96200077c565b5b50919050565b60008190508160005260206000209050919050565b60006020601f8301049050919050565b600082821b905092915050565b600060088302620008447fffffffffffffffffffffffffffffffffffffffffffffffffffffffffffffffff8262000805565b62000850868362000805565b95508019841693508086168417925050509392505050565b6000819050919050565b6000620008936200088d620008878462000686565b62000868565b62000686565b9050919050565b6000819050919050565b620008af8362000872565b620008c7620008be826200089a565b84845462000812565b825550505050565b600090565b620008de620008cf565b620008eb818484620008a4565b505050565b5b81811015620009135762000907600082620008d4565b600181019050620008f1565b5050565b601f82111562000962576200092c81620007e0565b6200093784620007f5565b8101602085101562000947578190505b6200095f6200095685620007f5565b830182620008f0565b50505b505050565b600082821c905092915050565b6000620009876000198460080262000967565b1980831691505092915050565b6000620009a2838362000974565b9150826002028217905092915050565b620009bd8262000771565b67ffffffffffffffff811115620009d957620009d8620004bd565b5b620009e58254620007ab565b620009f282828562000917565b600060209050601f83116001811462000a2a576000841562000a15578287015190505b62000a21858262000994565b86555062000a91565b601f19841662000a3a86620007e0565b60005b8281101562000a645784890151825560018201915060208501945060208101905062000a3d565b8683101562000a84578489015162000a80601f89168262000974565b8355505b6001600288020188555050505b505050505050565b62000aa48162000641565b82525050565b600060208201905062000ac1600083018462000a99565b92915050565b7f4e487b7100000000000000000000000000000000000000000000000000000000600052601160045260246000fd5b600062000b038262000686565b915062000b108362000686565b925082820190508082111562000b2b5762000b2a62000ac7565b5b92915050565b62000b3c8162000686565b82525050565b600060608201905062000b59600083018662000a99565b62000b68602083018562000b31565b62000b77604083018462000b31565b949350505050565b600060208201905062000b96600083018462000b31565b92915050565b611f218062000bac6000396000f3fe608060405234801561001057600080fd5b50600436106101585760003560e01c80636c8cbd0d116100c3578063a9059cbb1161007c578063a9059cbb146103bc578063b77cf9c6146103ec578063dca8b0811461041c578063dd62ed3e14610438578063de5f72fd14610468578063f2fde38b1461048657610158565b80636c8cbd0d1461030c57806370a082311461032a578063715018a61461035a5780638da5cb5b1461036457806395d89b4114610382578063a6e340c6146103a057610158565b8063337d1feb11610115578063337d1feb1461023757806337c909ec1461026757806339cdf4ed1461028557806340c10f19146102b6578063449a52f8146102d25780634e71d92d146102ee57610158565b806306fdde031461015d578063095ea7b31461017b57806314da9253146101ab57806318160ddd146101cb57806323b872dd146101e9578063313ce56714610219575b600080fd5b6101656104a2565b60405161017291906116b9565b60405180910390f35b61019560048036038101906101909190611774565b610534565b6040516101a291906117cf565b60405180910390f35b6101b3610557565b6040516101c2939291906117f9565b60405180910390f35b6101d3610585565b6040516101e09190611830565b60405180910390f35b61020360048036038101906101fe919061184b565b61058f565b60405161021091906117cf565b60405180910390f35b6102216105be565b60405161022e91906118ba565b60405180910390f35b610251600480360381019061024c91906118d5565b6105c7565b60405161025e9190611830565b60405180910390f35b61026f610610565b60405161027c9190611830565b60405180910390f35b61029f600480360381019061029a91906118d5565b610617565b6040516102ad929190611902565b60405180910390f35b6102d060048036038101906102cb9190611774565b6106ee565b005b6102ec60048036038101906102e79190611774565b6107b6565b005b6102f66108d8565b60405161030391906117cf565b60405180910390f35b6103146108e8565b6040516103219190611830565b60405180910390f35b610344600480360381019061033f91906118d5565b6108f5565b6040516103519190611830565b60405180910390f35b61036261093d565b005b61036c610951565b604051610379919061193a565b60405180910390f35b61038a61097b565b60405161039791906116b9565b60405180910390f35b6103ba60048036038101906103b59190611955565b610a0d565b005b6103d660048036038101906103d19190611774565b610ac1565b6040516103e391906117cf565b60405180910390f35b610406600480360381019061040191906118d5565b610ae4565b6040516104139190611830565b60405180910390f35b61043660048036038101906104319190611955565b610afc565b005b610452600480360381019061044d9190611982565b610b82565b60405161045f9190611830565b60405180910390f35b610470610c09565b60405161047d91906117cf565b60405180910390f35b6104a0600480360381019061049b91906118d5565b610c19565b005b6060600380546104b1906119f1565b80601f01602080910402602001604051908101604052809291908181526020018280546104dd906119f1565b801561052a5780601f106104ff5761010080835404028352916020019161052a565b820191906000526020600020905b81548152906001019060200180831161050d57829003601f168201915b5050505050905090565b60008061053f610c9f565b905061054c818585610ca7565b600191505092915050565b600080600061056c610567610951565b6108f5565b683635c9adc5dea0000062015180925092509250909192565b6000600254905090565b60008061059a610c9f565b90506105a7858285610cb9565b6105b2858585610d4e565b60019150509392505050565b60006012905090565b6000600660008373ffffffffffffffffffffffffffffffffffffffff1673ffffffffffffffffffffffffffffffffffffffff168152602001908152602001600020549050919050565b6201518081565b6000806000600660008573ffffffffffffffffffffffffffffffffffffffff1673ffffffffffffffffffffffffffffffffffffffff168152602001908152602001600020540361066e5760016000915091506106e9565b600062015180600660008673ffffffffffffffffffffffffffffffffffffffff1673ffffffffffffffffffffffffffffffffffffffff168152602001908152602001600020546106be9190611a51565b90508042106106d5576001600092509250506106e9565b600042826106e39190611a85565b92509250505b915091565b6106f6610e42565b600073ffffffffffffffffffffffffffffffffffffffff168273ffffffffffffffffffffffffffffffffffffffff1603610765576040517f08c379a000000000000000000000000000000000000000000000000000000000815260040161075c90611b05565b60405180910390fd5b600081116107a8576040517f08c379a000000000000000000000000000000000000000000000000000000000815260040161079f90611b71565b60405180910390fd5b6107b28282610ec9565b5050565b6107be610e42565b600073ffffffffffffffffffffffffffffffffffffffff168273ffffffffffffffffffffffffffffffffffffffff160361082d576040517f08c379a000000000000000000000000000000000000000000000000000000000815260040161082490611bdd565b60405180910390fd5b60008111610870576040517f08c379a000000000000000000000000000000000000000000000000000000000815260040161086790611b71565b60405180910390fd5b8061088161087c610951565b6108f5565b10156108c2576040517f08c379a00000000000000000000000000000000000000000000000000000000081526004016108b990611c49565b60405180910390fd5b6108d46108cd610951565b8383610d4e565b5050565b60006108e333610f4b565b905090565b683635c9adc5dea0000081565b60008060008373ffffffffffffffffffffffffffffffffffffffff1673ffffffffffffffffffffffffffffffffffffffff168152602001908152602001600020549050919050565b610945610e42565b61094f6000611167565b565b6000600560009054906101000a900473ffffffffffffffffffffffffffffffffffffffff16905090565b60606004805461098a906119f1565b80601f01602080910402602001604051908101604052809291908181526020018280546109b6906119f1565b8015610a035780601f106109d857610100808354040283529160200191610a03565b820191906000526020600020905b8154815290600101906020018083116109e657829003601f168201915b5050505050905090565b610a15610e42565b60008111610a58576040517f08c379a0000000000000000000000000000000000000000000000000000000008152600401610a4f90611b71565b60405180910390fd5b610a69610a63610951565b82610ec9565b610a71610951565b73ffffffffffffffffffffffffffffffffffffffff167f8a609374befb6b58cb150d9bd9aafa56b72315f38a284e3c21c69827fe7102b982604051610ab69190611830565b60405180910390a250565b600080610acc610c9f565b9050610ad9818585610d4e565b600191505092915050565b60066020528060005260406000206000915090505481565b610b04610e42565b60008111610b47576040517f08c379a0000000000000000000000000000000000000000000000000000000008152600401610b3e90611b71565b60405180910390fd5b6040517f08c379a0000000000000000000000000000000000000000000000000000000008152600401610b7990611cdb565b60405180910390fd5b6000600160008473ffffffffffffffffffffffffffffffffffffffff1673ffffffffffffffffffffffffffffffffffffffff16815260200190815260200160002060008373ffffffffffffffffffffffffffffffffffffffff1673ffffffffffffffffffffffffffffffffffffffff16815260200190815260200160002054905092915050565b6000610c1433610f4b565b905090565b610c21610e42565b600073ffffffffffffffffffffffffffffffffffffffff168173ffffffffffffffffffffffffffffffffffffffff1603610c935760006040517f1e4fbdf7000000000000000000000000000000000000000000000000000000008152600401610c8a919061193a565b60405180910390fd5b610c9c81611167565b50565b600033905090565b610cb4838383600161122d565b505050565b6000610cc58484610b82565b90507fffffffffffffffffffffffffffffffffffffffffffffffffffffffffffffffff811015610d485781811015610d38578281836040517ffb8f41b2000000000000000000000000000000000000000000000000000000008152600401610d2f93929190611cfb565b60405180910390fd5b610d478484848403600061122d565b5b50505050565b600073ffffffffffffffffffffffffffffffffffffffff168373ffffffffffffffffffffffffffffffffffffffff1603610dc05760006040517f96c6fd1e000000000000000000000000000000000000000000000000000000008152600401610db7919061193a565b60405180910390fd5b600073ffffffffffffffffffffffffffffffffffffffff168273ffffffffffffffffffffffffffffffffffffffff1603610e325760006040517fec442f05000000000000000000000000000000000000000000000000000000008152600401610e29919061193a565b60405180910390fd5b610e3d838383611404565b505050565b610e4a610c9f565b73ffffffffffffffffffffffffffffffffffffffff16610e68610951565b73ffffffffffffffffffffffffffffffffffffffff1614610ec757610e8b610c9f565b6040517f118cdaa7000000000000000000000000000000000000000000000000000000008152600401610ebe919061193a565b60405180910390fd5b565b600073ffffffffffffffffffffffffffffffffffffffff168273ffffffffffffffffffffffffffffffffffffffff1603610f3b5760006040517fec442f05000000000000000000000000000000000000000000000000000000008152600401610f32919061193a565b60405180910390fd5b610f4760008383611404565b5050565b60008073ffffffffffffffffffffffffffffffffffffffff168273ffffffffffffffffffffffffffffffffffffffff1603610fbb576040517f08c379a0000000000000000000000000000000000000000000000000000000008152600401610fb290611d7e565b60405180910390fd5b62015180600660008473ffffffffffffffffffffffffffffffffffffffff1673ffffffffffffffffffffffffffffffffffffffff168152602001908152602001600020546110099190611a51565b42101561104b576040517f08c379a000000000000000000000000000000000000000000000000000000000815260040161104290611e10565b60405180910390fd5b683635c9adc5dea00000611065611060610951565b6108f5565b10156110a6576040517f08c379a000000000000000000000000000000000000000000000000000000000815260040161109d90611ea2565b60405180910390fd5b42600660008473ffffffffffffffffffffffffffffffffffffffff1673ffffffffffffffffffffffffffffffffffffffff168152602001908152602001600020819055506111056110f5610951565b83683635c9adc5dea00000610d4e565b8173ffffffffffffffffffffffffffffffffffffffff167f9923b4306c6c030f2bdfbf156517d5983b87e15b96176da122cd4f2effa4ba7b683635c9adc5dea0000042604051611156929190611ec2565b60405180910390a260019050919050565b6000600560009054906101000a900473ffffffffffffffffffffffffffffffffffffffff16905081600560006101000a81548173ffffffffffffffffffffffffffffffffffffffff021916908373ffffffffffffffffffffffffffffffffffffffff1602179055508173ffffffffffffffffffffffffffffffffffffffff168173ffffffffffffffffffffffffffffffffffffffff167f8be0079c531659141344cd1fd0a4f28419497f9722a3daafe3b4186f6b6457e060405160405180910390a35050565b600073ffffffffffffffffffffffffffffffffffffffff168473ffffffffffffffffffffffffffffffffffffffff160361129f5760006040517fe602df05000000000000000000000000000000000000000000000000000000008152600401611296919061193a565b60405180910390fd5b600073ffffffffffffffffffffffffffffffffffffffff168373ffffffffffffffffffffffffffffffffffffffff16036113115760006040517f94280d62000000000000000000000000000000000000000000000000000000008152600401611308919061193a565b60405180910390fd5b81600160008673ffffffffffffffffffffffffffffffffffffffff1673ffffffffffffffffffffffffffffffffffffffff16815260200190815260200160002060008573ffffffffffffffffffffffffffffffffffffffff1673ffffffffffffffffffffffffffffffffffffffff1681526020019081526020016000208190555080156113fe578273ffffffffffffffffffffffffffffffffffffffff168473ffffffffffffffffffffffffffffffffffffffff167f8c5be1e5ebec7d5bd14f71427d1e84f3dd0314c0f7b2291e5b200ac8c7c3b925846040516113f59190611830565b60405180910390a35b50505050565b600073ffffffffffffffffffffffffffffffffffffffff168373ffffffffffffffffffffffffffffffffffffffff160361145657806002600082825461144a9190611a51565b92505081905550611529565b60008060008573ffffffffffffffffffffffffffffffffffffffff1673ffffffffffffffffffffffffffffffffffffffff168152602001908152602001600020549050818110156114e2578381836040517fe450d38c0000000000000000000000000000000000000000000000000000000081526004016114d993929190611cfb565b60405180910390fd5b8181036000808673ffffffffffffffffffffffffffffffffffffffff1673ffffffffffffffffffffffffffffffffffffffff16815260200190815260200160002081905550505b600073ffffffffffffffffffffffffffffffffffffffff168273ffffffffffffffffffffffffffffffffffffffff160361157257806002600082825403925050819055506115bf565b806000808473ffffffffffffffffffffffffffffffffffffffff1673ffffffffffffffffffffffffffffffffffffffff168152602001908152602001600020600082825401925050819055505b8173ffffffffffffffffffffffffffffffffffffffff168373ffffffffffffffffffffffffffffffffffffffff167fddf252ad1be2c89b69c2b068fc378daa952ba7f163c4a11628f55a4df523b3ef8360405161161c9190611830565b60405180910390a3505050565b600081519050919050565b600082825260208201905092915050565b60005b83811015611663578082015181840152602081019050611648565b60008484015250505050565b6000601f19601f8301169050919050565b600061168b82611629565b6116958185611634565b93506116a5818560208601611645565b6116ae8161166f565b840191505092915050565b600060208201905081810360008301526116d38184611680565b905092915050565b600080fd5b600073ffffffffffffffffffffffffffffffffffffffff82169050919050565b600061170b826116e0565b9050919050565b61171b81611700565b811461172657600080fd5b50565b60008135905061173881611712565b92915050565b6000819050919050565b6117518161173e565b811461175c57600080fd5b50565b60008135905061176e81611748565b92915050565b6000806040838503121561178b5761178a6116db565b5b600061179985828601611729565b92505060206117aa8582860161175f565b9150509250929050565b60008115159050919050565b6117c9816117b4565b82525050565b60006020820190506117e460008301846117c0565b92915050565b6117f38161173e565b82525050565b600060608201905061180e60008301866117ea565b61181b60208301856117ea565b61182860408301846117ea565b949350505050565b600060208201905061184560008301846117ea565b92915050565b600080600060608486031215611864576118636116db565b5b600061187286828701611729565b935050602061188386828701611729565b92505060406118948682870161175f565b9150509250925092565b600060ff82169050919050565b6118b48161189e565b82525050565b60006020820190506118cf60008301846118ab565b92915050565b6000602082840312156118eb576118ea6116db565b5b60006118f984828501611729565b91505092915050565b600060408201905061191760008301856117c0565b61192460208301846117ea565b9392505050565b61193481611700565b82525050565b600060208201905061194f600083018461192b565b92915050565b60006020828403121561196b5761196a6116db565b5b60006119798482850161175f565b91505092915050565b60008060408385031215611999576119986116db565b5b60006119a785828601611729565b92505060206119b885828601611729565b9150509250929050565b7f4e487b7100000000000000000000000000000000000000000000000000000000600052602260045260246000fd5b60006002820490506001821680611a0957607f821691505b602082108103611a1c57611a1b6119c2565b5b50919050565b7f4e487b7100000000000000000000000000000000000000000000000000000000600052601160045260246000fd5b6000611a5c8261173e565b9150611a678361173e565b9250828201905080821115611a7f57611a7e611a22565b5b92915050565b6000611a908261173e565b9150611a9b8361173e565b9250828203905081811115611ab357611ab2611a22565b5b92915050565b7f43616e6e6f74206d696e7420746f207a65726f20616464726573730000000000600082015250565b6000611aef601b83611634565b9150611afa82611ab9565b602082019050919050565b60006020820190508181036000830152611b1e81611ae2565b9050919050565b7f416d6f756e74206d7573742062652067726561746572207468616e207a65726f600082015250565b6000611b5b602083611634565b9150611b6682611b25565b602082019050919050565b60006020820190508181036000830152611b8a81611b4e565b9050919050565b7f43616e6e6f74207472616e7366657220746f207a65726f206164647265737300600082015250565b6000611bc7601f83611634565b9150611bd282611b91565b602082019050919050565b60006020820190508181036000830152611bf681611bba565b9050919050565b7f496e73756666696369656e74206f776e65722062616c616e6365000000000000600082015250565b6000611c33601a83611634565b9150611c3e82611bfd565b602082019050919050565b60006020820190508181036000830152611c6281611c26565b9050919050565b7f436c61696d20616d6f756e74206973206669786564206174206465706c6f796d60008201527f656e740000000000000000000000000000000000000000000000000000000000602082015250565b6000611cc5602383611634565b9150611cd082611c69565b604082019050919050565b60006020820190508181036000830152611cf481611cb8565b9050919050565b6000606082019050611d10600083018661192b565b611d1d60208301856117ea565b611d2a60408301846117ea565b949350505050565b7f43616e6e6f7420636c61696d20746f207a65726f206164647265737300000000600082015250565b6000611d68601c83611634565b9150611d7382611d32565b602082019050919050565b60006020820190508181036000830152611d9781611d5b565b9050919050565b7f436c61696d20636f6f6c646f776e206e6f74206d65742e20596f752063616e2060008201527f636c61696d206f6e636520657665727920323420686f75727300000000000000602082015250565b6000611dfa603983611634565b9150611e0582611d9e565b604082019050919050565b60006020820190508181036000830152611e2981611ded565b9050919050565b7f46617563657420697320656d7074792e20506c6561736520636f6e746163742060008201527f61646d696e20746f20726566696c6c0000000000000000000000000000000000602082015250565b6000611e8c602f83611634565b9150611e9782611e30565b604082019050919050565b60006020820190508181036000830152611ebb81611e7f565b9050919050565b6000604082019050611ed760008301856117ea565b611ee460208301846117ea565b939250505056fea26469706673582212200fe33b5d65b276b1da3f8635ff66b4e85e7fb023a854488e899b30e9d612044a64736f6c63430008170033",
  "linkReferences": {},
  "deployedLinkReferences": {}
}